:020000040800F2
:10000000D80B0020450100087501000877010008A1
:100010007B0100087F010008830100080000000048
:100020000000000000000000000000008701000840
:1000300089010008000000008B0100088D01000804
:100040005F0100085F0100085F0100089F010008D0
:100050005F0100085F0100085F0100085F01000800
:100060005F0100085F0100085F0100085F010008F0
:100070005F0100085F0100085F0100085F010008E0
:100080005F0100085F0100085F0100085F010008D0
:100090005F0100085F0100085F0100085F010008C0
:1000A0005F0100085F0100085F01000825020008E9
:1000B000BD0200085F0100085F0100085F01000841
:1000C0005F0100085F0100085F0100085F01000890
:1000D0005F010008BB0100085F010008E90100089A
:1000E0005F0100085F0100085F0100085F01000870
:1000F0005F0100085F0100085F0100085F01000860
:100100005F0100085F0100085F0100085F0100084F
:100110005F0100085F0100085F0100085F0100083F
:100120005F0100085F0100085F0100085F0100082F
:10013000DFF80CD006F0FCF9004800476901000820
:10014000D80B00200648804706480047FEE7FEE738
:10015000FEE7FEE7FEE7FEE7FEE7FEE7FEE7FEE777
:10016000B72D00083101000803F0CDFD01E004F0D7
:1001700054FAFCE7704700BFFEE700BFFEE700BF90
:10018000FEE700BFFEE77047704770478148006890
:1001900020B180480068401E7E490860704710B555
:1001A000012001F06DFC38B1012001F079FC012043
:1001B0007949087001F036FC10BD10B540F22551A8
:1001C000764802F045FD70B140F22551734802F0C7
:1001D00069FD7248001D0088C4B2204605F08CF904
:1001E00000206F49487210BD10B540F225516D488E
:1001F00002F02EFD90B140F225516A4802F052FD06
:100200006848001D0088C4B2674841884088401C87
:10021000654A508002F11800445402E0002062490F
:10022000488010BD10B500240221604802F03BFB5D
:10023000002842D002215D4802F046FB5C4800786D
:1002400040B901205A490870584802F00DFB59493D
:10025000088032E05648007801282ED10020544909
:100260000870524802F000FB53490880514800884A
:100270000988884208DA504909884E4A1288881A43
:1002800005F0C7FF044612E04A4800884A49098839
:1002900088420BDD474909884FF6FF72511A464ADA
:1002A0001288881805F0B5FF044600E000242146B6
:1002B000424805F08FFE4249086010BD10B501218B
:1002C000880702F0F0FA002862D03E480088401CFF
:1002D0003C49088008460088032807DB05F0D4F86D
:1002E0000020384908800120374908803548408877
:1002F000401C3449488008464088152804DB00200B
:1003000048800120304948802E488088401C2D4973
:10031000888008468088B0F5FA7F04DD0020888058
:100320000120294988802748C088401C2549C88069
:100330000846C08840F2EF21884205DB00202149B1
:10034000C88001202049C8801E480089401C1D49E2
:10035000088108460089B0F57A7F04DD0020088115
:1003600001201949088117484089401C15494881D6
:100370000846408940F6B931884205DB0020114922
:1003800048810120104948810121880702F09CFA28
:1003900010BD0000F80000209C0000200038014043
:1003A000580300200048004048020020002C014073
:1003B000340000203600002038000020002474495A
:1003C000300000207C0100208801002031490143D9
:1003D000314A1160704770B5002100230F22C478A4
:1003E00004B32D4C246804F4E064C4F5E064210AED
:1003F000C1F10403CA40447804FA03F1847814403C
:1004000021430901254C0678A155047804F01F0505
:100410000124AC4005786D11AD0005F1E025C5F86B
:10042000004109E0047804F01F050124AC401C4D94
:100430000678761145F8264070BD1A4A0A400243F4
:10044000154B1B1F1A60704739B1134A121D1268F1
:100450000243114B1B1D1A6006E00F4A121D126861
:1004600082430D4B1B1D1A607047042808D14FF0C2
:10047000E021096941F004014FF0E022116107E039
:100480004FF0E021096921F004014FF0E0221161F1
:10049000704700000000FA050CED00E000E400E009
:1004A00080E100E080FFFF1F10B50446FA48844257
:1004B00008D10121401501F00FFA0021601501F06B
:1004C0000BFA17E0F548844208D10121001501F02C
:1004D00003FA0021201501F0FFF90BE0F0488442F7
:1004E00008D10121C80301F0F7F900214FF40040C1
:1004F00001F0F2F910BD30B502460020002350682B
:10050000E84C20400D790C6844EA052420435060F3
:100510009068E54C2040D1E902542C434D7944EADF
:10052000450420439060D06A20F470000C7C641E67
:10053000E4B2234340EA0350D06230BD00210160A1
:10054000017141718160C16001210174704721B165
:10055000826842F00102826003E0826822F00102B8
:100560008260704721B1826842F48072826003E049
:10057000826822F480728260704710B50023CBB28B
:100580001AB144681C43446002E044689C434460E0
:1005900010BD816841F0080181607047014600206C
:1005A0008A6802F008020AB1012000E000207047CA
:1005B000816841F0040181607047014600208A682B
:1005C00002F004020AB1012000E00020704721B1CE
:1005D000826842F4A002826003E0826822F4A002F2
:1005E00082607047014600208A6802F480020AB1E6
:1005F000012000E00020704710B50A4600210023CA
:10060000416821F46041531E41EA4331416010BD0D
:1006100021B1426842F40062426003E0426822F481
:10062000006242607047F0B504460D46002000218C
:10063000092D11DDE068A5F10A0606EB460707263D
:1006400006FA07F18843A5F10A0606EB460603FA07
:1006500006F10843E0600CE0206905EB450707263A
:1006600006FA07F1884305EB450603FA06F108434D
:100670002061072A0FDA606B561E06EB86071F26DD
:1006800006FA07F18843561E06EB860605FA06F1C0
:100690000843606322E00D2A0FDA206BD61F06EBB9
:1006A00086071F2606FA07F18843D61F06EB860643
:1006B00005FA06F10843206310E0E06AA2F10D0696
:1006C00006EB86071F2606FA07F18843A2F10D06FE
:1006D00006EB860605FA06F10843E062F0BD21B19B
:1006E000826842F48012826003E0826822F4801201
:1006F000826070470146C86C80B2704766484C30D3
:100700000068704721B1426842F48062426003E0B1
:10071000426822F480624260704721B1426842F42C
:100720008052426003E0426822F480524260704787
:100730000A460021816821F4E0411143816070473D
:1007400021B1826842F40042826003E0826822F4B0
:1007500000428260704721B1826842F402128260D6
:1007600003E0826822F40212826070470146002092
:100770008A6802F400120AB1012000E000207047EC
:10078000F0B504461546002000220026092911DD97
:10079000E068A1F10A0707EB470C072707FA0CF2FC
:1007A0009043A1F10A0707EB470703FA07F210434A
:1007B000E0600CE0206901EB410C072707FA0CF21E
:1007C000904301EB410703FA07F210432061A06B4D
:1007D000C0F30156EF1C06F1010CA7EB0C0707EB69
:1007E000870C1F2707FA0CF29043EF1C06F1010C4F
:1007F000A7EB0C0707EB870701FA07F21043A0638A
:10080000F0BD10B50A4600210023816B21F4401190
:10081000531E41EA0351816310BD08B500230093C4
:100820000090009B0B440093009B1A6008BD08B524
:10083000024600200090009201F12800009B18441D
:1008400000900098006880B208BD0A460021416807
:10085000164B1940114341607047416282627047F4
:100860000A460021416821F01F0111434160704791
:1008700040B109490831096841F40001064A0832CB
:10088000116007E004490831096821F40001024AB7
:100890000832116070470000002401400028014028
:1008A000003C0140FFFEF0FFFDF7F1FFFFFD3FFFC1
:1008B0000246002013680B400BB1012000E000202D
:1008C0007047CA430260704770B50246002000239B
:1008D00000240B125568CEB205EA060415681D40C7
:1008E00015B10CB1012000E0002070BD00220A12F9
:1008F000D34303607047000010B5012001F006F8F3
:10090000002001F003F810BD2A490860704729490A
:10091000091F086070472749843108607047014605
:100920000020254A10884FF67F4210400843224A93
:1009300010807047014600201F4A10884FF68072D1
:10094000104008431C4A1080704708B500220092EE
:10095000194A2C3A0092009A02440092009A1160BF
:1009600008BD08B501460020009013482C380090BF
:100970000098084400900098008808BD0D489C30FD
:100980000068C0B270470C480830008840F0010091
:1009900009490831088070470648A0300068C0B295
:1009A000704705480830008840F0020002490831CD
:1009B0000880704704860D422C6C004010B5012160
:1009C000480700F096FF00214FF0005000F091FF23
:1009D00010BD30B5002200235A4C226840F6FE7448
:1009E0008440A243D1E900452C438D682C43CD6857
:1009F00044EA050303FA00F42243524C226030BD5E
:100A00000021016041608160C160704739B14D4A89
:100A10001268012383401A434A4B1A6006E0494A90
:100A20001268012383409A43464B1A60704741B1D4
:100A3000444A12684FF4805383401A43414B1A6072
:100A400007E0404A12684FF4805383409A433D4B7D
:100A50001A60704710B551B13A4A121D1268040964
:100A60000123A3401A43374B1B1D1A6009E0354A86
:100A7000121D126804090123A3409A43314B1B1D28
:100A80001A6010BD40B12F49091D096841F00301EA
:100A90002C4A121D116007E02A49091D096821F03E
:100AA0000301284A121D1160704710B53AB1254B59
:100AB0001B6801FA00F42343224C236006E0214B1B
:100AC0001B6801FA00F4A3431E4C236010BD08B557
:100AD000002200921B4A009200F10802009B1A4477
:100AE0000092009A116008BD08B500220092154AD4
:100AF000009200F11402009B1A440092009A1160C7
:100B000008BD30B500240023082802D142EA0124A0
:100B100001E042EA01440B4B00F120052B441C602C
:100B200030BD08B5014600200090064800902C20FA
:100B300000EB9100009A104400900098006880B289
:100B400008BD00000074004001684FF6FE721140BD
:100B500001600021016041608160C1608D4988426F
:100B600008D18C490839496841F00F01894A083A8F
:100B700051608AE087491431884208D18549083993
:100B8000496841F0F001834A083A51607DE08149AB
:100B90002831884208D17F490839496841F4706199
:100BA0007C4A083A516070E07A493C31884208D169
:100BB00078490839496841F47041764A083A5160E9
:100BC00063E074495031884208D172490839496854
:100BD00041F470216F4A083A516056E06D49643122
:100BE000884208D16B490839496841F47001694A63
:100BF000083A516049E067497831884208D165492F
:100C00000839496841F07061624A083A51603CE035
:100C10006149884206D1011F096841F00F01021F96
:100C2000116032E05C491431884208D15A49091FE9
:100C3000096841F0F001584A121F116025E0564939
:100C40002831884208D15449091F096841F470616C
:100C5000514A121F116018E04F493C31884208D1B7
:100C60004D49091F096841F470414B4A121F116038
:100C70000BE049495031884207D14749091F0968AB
:100C800041F47021444A121F1160704710B50022D0
:100C9000026847F6F0739A430C6A8B6823430C6929
:100CA00023434C6923438C692343CC6923434C6A17
:100CB00023438C6A23431A430260CB6843600B686A
:100CC00083604B68C36010BD00210160416081609A
:100CD000C160016141618161C16101624162816202
:100CE000704721B1026842F00102026004E002682C
:100CF0004FF6FE731A40026070471AB103680B4347
:100D0000036002E003688B430360704741607047F3
:100D10000146486880B2704701460020002201F079
:100D200080531BB11C4B083B1A6802E0194B083B6F
:100D30001A6802EA01030BB1012000E000207047AD
:100D400000F0805119B11449091F086002E01149EF
:100D500008394860704701460020002201F08053A6
:100D60001BB10D4B083B1A6802E00A4B083B1A689E
:100D700002EA01030BB1012000E00020704700F0FF
:100D8000805119B10449091F086002E0014908397E
:100D900048607047080002400804024010B504464D
:100DA000CC48844208D10121042000F095FD0021A7
:100DB000042000F091FD46E0C748844208D101219B
:100DC000082000F089FD0021082000F085FD3AE0B0
:100DD000C248844208D10121102000F07DFD00218D
:100DE000102000F079FD2EE0BD48844208D1012199
:100DF000202000F071FD0021202000F06DFD22E098
:100E0000B848844208D10121402000F065FD00214E
:100E1000402000F061FD16E0B348844208D1012172
:100E2000802000F059FD0021802000F055FD0AE0EF
:100E3000AE48844207D10121801500F04DFD00210C
:100E4000A01500F049FD10BD10B50121084600F0C5
:100E500043FD0021012000F03FFD10BD2DE9F041D0
:100E6000024600250026002000230024002791F8D8
:100E700003C00CF00F0591F803C00CF0100CBCF18E
:100E8000000F03D091F802C04CEA050591F800C0AC
:100E9000BCF1000F31D0146800202BE04FF0010CA2
:100EA0000CFA00F3B1F800C00CEA03069E4220D110
:100EB00083004FF00F0C0CFA03F7BC4305FA03FC58
:100EC0004CEA040491F803C0BCF1280F06D14FF09E
:100ED000010C0CFA00FCC2F814C00AE091F803C03F
:100EE000BCF1480F05D14FF0010C0CFA00FCC2F820
:100EF00010C0401C0828D1D31460B1F800C0BCF168
:100F0000FF0F34DD546800202EE000F1080C4FF094
:100F1000010808FA0CF3B1F800C00CEA03069E427F
:100F200021D183004FF00F0C0CFA03F7BC4305FAF4
:100F300003FC4CEA040491F803C0BCF1280F05D16E
:100F400000F1080C08FA0CF8C2F8148091F803C0FC
:100F5000BCF1480F07D100F1080C4FF0010808FA66
:100F60000CF8C2F81080401C0828CED35460BDE8AD
:100F7000F0814FF6FF710180022181700421C17060
:100F800070470246002093680B400BB1012000E03F
:100F9000002070470146886880B2704702460020F2
:100FA000D3680B400BB1012000E0002070470146E0
:100FB000C86880B2704701617047416170470AB1EB
:100FC000016100E041617047C16070474FF48032B9
:100FD0000A43826181618261826982697047024647
:100FE0000020434B18684FF68073184040EA021007
:100FF00008433F4B186070473E49C8617047F0B5E1
:101000000A46002300240021002500F00046B6F126
:10101000004F02D1364EF16901E0354E7168C0F3E0
:10102000034583B200F44016B6F5401F08D121F005
:1010300070612F4E766826F070662D4F7E6012E04C
:1010400000F48016B6F5801F06D1032606FA05F4D3
:10105000A14341F0706106E0460D360103FA06F641
:10106000B14341F0706122B1460D360103FA06F634
:10107000314300F00046B6F1004F02D11C4EF16141
:1010800001E01B4E7160F0BD30B500228B071C0FD4
:101090000F2303FA04F2164B08338C1053F8243054
:1010A0009343134C08348D1044F8253023468C109C
:1010B00053F824308C07240F00FA04F423430C4C1B
:1010C00008348D1044F8253030BD0A49DC31086001
:1010D0007047000000080140000C01400010014072
:1010E0000014014000180140001C01400020014094
:1010F000000001400000204210B50446F748844239
:1011000009D10121480500F0F4FB00214FF4001043
:1011100000F0EFFB08E00121880500F0EAFB002168
:101120004FF4800000F0E5FB10BD2DE9F04385B0E1
:1011300004460D460026B1460427DFF8A483A6889E
:101140004FF6C0700640684600F03FFBDDF80880AF
:10115000E448B8FBF0F01FFA80F946EA0906A680D9
:1011600020884FF6FE71084020800026DE4928685E
:1011700088420CD828684000B8FBF0F087B2042FF2
:1011800000DA04273E4309F10100208427E0E888C3
:101190004BF6FF71884206D1286800EB4000B8FB8F
:1011A000F0F087B209E0286800EBC00101EB001005
:1011B000B8FBF0F087B247F48047C7F30B0008B9DB
:1011C00047F0010747F4004006434FF4967009FBCF
:1011D00000F04FF47A7190FBF1F0401C2084A6835C
:1011E000208840F00100208026884FF6F530064028
:1011F000A8886989084306432680A8892989084365
:10120000208105B0BDE8F08341F288310160002102
:1012100081804BF6FF71C1800021018141814FF433
:1012200080418181704721B1028842F00102028031
:1012300004E002884FF6FE731A400280704721B125
:10124000828842F40062828004E082884FF2FF7359
:101250001A408280704721B1828842F48052828095
:1012600004E082884EF6FF731A408280704721B1F5
:10127000028842F48072028004E002884FF6FF6325
:101280001A400280704721B1028842F40072028045
:1012900004E002884FF6FF531A400280704721B1E4
:1012A000028842F48062028004E002884FF6FF3335
:1012B0001A40028070470A46002181894FF6017367
:1012C000194002F0FE0319438181704721B18289E0
:1012D00042F00102828104E082894FF6FE731A40D7
:1012E0008281704721B1028842F04002028004E00E
:1012F00002884FF6BF731A40028070471AB1838884
:101300000B43838002E083888B4383807047018294
:1013100070470146088AC0B2704712B141F001011E
:1013200002E04FF6FE7319400182704708B502468D
:1013300000200090009200980844009000980088D7
:1013400008BD21B1028842F40042028003E0028815
:10135000C2F30E0202807047B1F5006F04D102881B
:1013600042F40062028004E002884FF2FF731A40E8
:1013700002807047B1F5005F04D1028842F4005248
:10138000028004E002884DF6FF731A400280704725
:1013900021B1028842F48052028004E002884EF6B5
:1013A000FF731A4002807047B1F5006F04D10288C4
:1013B00042F40062028004E002884FF2FF731A4098
:1013C0000280704721B1028842F02002028004E0CE
:1013D00002884FF6DF731A40028070470146088B7F
:1013E0000012704721B1028842F01002028004E02E
:1013F00002884FF6EF731A400280704721B90288C5
:1014000042F08002028004E002884FF67F731A40A7
:1014100002807047B1F5804F05D0828B4BF6FF7389
:101420001A40828303E0828B42F4804282837047B9
:1014300070B502460024002500230020958A138BF6
:101440001B0445EA030626F07F4404EA01068E42A7
:1014500001D1012000E0002070BD10B50146002040
:10146000002300228B8A0A8B120443EA020424F030
:101470007F4010BD0CB5024600200023019300936D
:1014800000920B0F019321F07F41019B1BB1009B48
:101490001433009303E0090C009B18330093009B66
:1014A0001B680B400BB1012000E000200CBD0022A6
:1014B00021F07F42D3438382704730B5024600203B
:1014C0000023948801F0E06504EA154321F07F4190
:1014D000948A0C4054B14BB1012008E00054004004
:1014E00000127A0040420F00A0860100002030BDAB
:1014F000002221F07F42D3438382704710B501213F
:10150000080700F0F6F900214FF0805000F0F1F9E3
:1015100010BD2A4908627047284908617047014692
:101520000020274A106820F0E00008431060704750
:101530002249A0310860704710B502460020204BB8
:10154000186820F00300104318601E4B1B6843F01E
:1015500004031C4C2360012901D130BF00E020BFEF
:10156000184B1B6823F00403164C236010BD14486D
:10157000006840F00400124908600846006840F026
:10158000020008600F48006840F004000D49086040
:1015900000BF00BF30BF704701460020084A5268B4
:1015A0000A400AB1012000E00020704704490968A0
:1015B00041EA8001024A11607047000000000E42BB
:1015C0000070004010ED00E0DF48006840F00100CE
:1015D000DD49086008464068DC490840DA4948604F
:1015E00008460068DA490840D7490860084600689C
:1015F00020F4802008600846406820F4FE0048601F
:101600004FF41F0088607047CF49096821F480318A
:10161000CD4A11601146096821F480211160B0F5AE
:10162000803F03D0B0F5802F0ED106E0C64909688F
:1016300041F48031C44A116007E0C349096841F4AC
:10164000A021C14A116000E000BF00BF704710B583
:1016500001460022002300204A11012A02D1BA4C7F
:10166000236806E0022A02D1B74C236A01E0B64C97
:10167000636A01F01F02012494401C400CB1012058
:1016800000E0002010BD38B50020009000240025A7
:1016900000BF3120FFF7DBFF05460098401C00909B
:1016A0000098B0F5A06F01D0002DF2D03120FFF7E7
:1016B000CEFF08B1012400E00024204638BD0146D9
:1016C0000020A14A106820F0F80040EAC100106034
:1016D0007047A04908607047024600209A4B58683E
:1016E00020F47C1042EA01031843974B586070477E
:1016F00098490866704701460020934A506820F0D8
:1017000003000843506070478F48406800F00C00A9
:101710007047014600208C4A506820F0F0000843D2
:101720005060704701460020874A506820F4E0600E
:1017300008435060704701460020834A506820F4F7
:10174000605040EAC1005060704729B17E4A527A29
:1017500002437D4B5A7204E07B4A527A82437A4BB1
:101760005A7270477B49D8310860704701460020A3
:10177000754A506820F4404008435060704700218B
:10178000714A20321170704A82F82010012802D06C
:1017900004280AD104E001216B4A2032117005E0CF
:1017A0000521694A2032117000E000BF00BF704778
:1017B0006949086070476449096A0143624A1162D5
:1017C0007047654944390860704730B500210022F0
:1017D000002400235C4D6D6805F00C0121B1042943
:1017E00005D0082923D105E05C4D056022E05B4D62
:1017F00005601FE0544D6D6805F47012524D6D6820
:1018000005F48034022505EB92421CB9544D554332
:1018100005600BE04C4D6D6805F400351DB1504D71
:101820005543056002E04D4D5543056002E04B4DC8
:10183000056000BF00BF444D6D6805F0F001090967
:10184000484D6B5C0568DD4045603F4D6D6805F4B3
:10185000E061090A434D6B5C4568DD4085603A4DA7
:101860006D6805F46051C90A3E4D6B5C4568DD400A
:10187000C560354D6D6805F44041890B3A4D6B5C90
:10188000C568B5FBF3F5056130BD29B12E4A526933
:1018900002432D4B5A6104E02B4A526982432A4B82
:1018A0005A61704729B1284A92690243264B9A61CE
:1018B00004E0254A92698243234B9A61704729B11B
:1018C000214AD2690243204BDA6104E01E4AD26900
:1018D00082431D4BDA61704729B11B4AD26802432B
:1018E000194BDA6004E0184AD2688243164BDA607A
:1018F000704729B1144A12690243134B1A6104E07C
:10190000114A12698243104B1A61704712494039DB
:10191000086070470F49C86470470B49C871704729
:101920000948406A40F080700749486270470146A4
:101930000020054A92680A400AB1012000E0002018
:101940007047014988727047001002400000FFF89C
:10195000FFFFF6FE000042428004424200127A007D
:1019600000093D003A0000204A00002029B1504AF9
:10197000128802434E4B1A8004E04D4A128882437B
:101980004B4B1A8070474A48001D008840F01000F9
:101990004749091D088070474548001D00884FF6DB
:1019A000EF7108404249091D0880704700214048F6
:1019B0001C300188001F008841EA0040704700B5D4
:1019C0000246FFF7E0FF100C394918310880091D65
:1019D0000A80FFF7E1FF00BD00B50246FFF7D3FF25
:1019E000C2F30340324908310880091D0A80FFF71D
:1019F000D3FF00BD00B50246FFF7C5FF100C2C4910
:101A000020310880091D0A80FFF7C6FF00BD0020B5
:101A10002749103109880907080B2549143109881D
:101A20000843704700BF2248001D008800F02000D6
:101A30000028F8D070471E48001D00884FF6F77147
:101A400008401B49091D088000BF1948001D008877
:101A500000F008000028F8D0704701460020144A22
:101A6000121D12880A400AB1012000E000207047D0
:101A70000F49091D098881430D4A121D11807047C5
:101A8000014600200A4A121D12880A40D0B2084AB4
:101A900012880A4012B108B1012000E0002070470E
:101AA0000349091D09888143014A121D11807047AD
:101AB0000028004010B50446FE48844208D10121A8
:101AC000C014FFF709FF0021E014FFF705FFC4E091
:101AD000B4F1804F08D101210846FFF70AFF002129
:101AE0000120FFF706FFB8E0F348844208D1012146
:101AF0000220FFF7FEFE00210220FFF7FAFEACE015
:101B0000EE48844208D101210420FFF7F2FE0021B3
:101B10000420FFF7EEFEA0E0E948844208D101214D
:101B20000820FFF7E6FE00210820FFF7E2FE94E020
:101B3000E448844208D101211020FFF7DAFE002199
:101B40001020FFF7D6FE88E0DF48844208D101214B
:101B50002020FFF7CEFE00212020FFF7CAFE7CE008
:101B6000DA48844208D101214014FFF7B5FE002174
:101B70006014FFF7B1FE70E0D548844209D101211D
:101B8000C804FFF7A9FE00214FF40020FFF7A4FED0
:101B900063E0D048844209D101210805FFF79CFE8B
:101BA00000214FF48010FFF797FE56E0CA488442A8
:101BB00009D101214805FFF78FFE00214FF40010E5
:101BC000FFF78AFE49E0C548844208D10121402040
:101BD000FFF78FFE00214020FFF78BFE3DE0C0485D
:101BE000844208D101218020FFF783FE002180205C
:101BF000FFF77FFE31E0BB48844208D10121801508
:101C0000FFF777FE0021A015FFF773FE25E0B64829
:101C1000844209D101210804FFF75EFE00214FF440
:101C20008030FFF759FE18E0B048844209D1012105
:101C30004804FFF751FE00214FF40030FFF74CFE3F
:101C40000BE0AB48844208D101218804FFF744FE31
:101C500000214FF48020FFF73FFE10BD00220288D4
:101C6000944B98420ED0994B98420BD0B0F1804FD4
:101C700008D0914B984205D0904B984202D0904B9F
:101C8000984204D14FF68F731A404B881A438D4BFC
:101C9000984207D08C4B984204D04FF6FF431A402D
:101CA000CB881A4302808B8883850B880385814B00
:101CB00098420BD0854B984208D08B4B984205D068
:101CC0008A4B984202D08A4B984201D10B7A038604
:101CD00001238382704770B5002400220023058C05
:101CE0004FF6FE7635400584028C8388048B4FF6D0
:101CF0008F752C40B51E2C400D882C43751E2A4034
:101D00000D892A434D882A436A4DA8420BD06F4D56
:101D1000A84208D0744DA84205D0744DA84202D004
:101D2000734DA84213D14FF6F7752A404D892A43C7
:101D30004FF6FB752A408D882A434FF6FF652B40EE
:101D40004FF6FF552B408D892B43CD892B43838044
:101D50000483CD888586028470BD70B5002400227E
:101D60000023058C4FF6EF7635400584028C83887E
:101D7000048B48F6FF752C404FF6FF452C400D882C
:101D80004FF6FF7606EA05252C434FF6DF752A400D
:101D90000D8906EA05152A434D8806EA05152A43EA
:101DA000444DA84202D0494DA8421DD14FF67F753F
:101DB0002A404D894FF6FF7606EA05152A434FF66D
:101DC000BF752A408D8806EA05152A434FF6FF3570
:101DD0002B404FF2FF752B408D8906EA85052B437A
:101DE000CD8906EA85052B4383800483CD8805874A
:101DF000028470BD70B5002400220023058C4FF6CC
:101E0000FF6635400584028C8388848B4FF68F757E
:101E10002C404FF6FC752C400D882C434FF6FF5597
:101E20002A400D894FF6FF7606EA05252A434D889C
:101E300006EA05252A431F4DA84202D0234DA84299
:101E40001DD14FF2FF752A404D894FF6FF7606EA05
:101E500005252A434FF6FF352A408D8806EA0525D9
:101E60002A434EF6FF752B404DF6FF752B408D89AA
:101E700006EA05152B43CD8906EA05152B43838019
:101E80008483CD888587028470BD70B500220023CD
:101E90000024058C4EF6FF7635400584038C84883B
:101EA000828B48F6FF752A404FF6FF452A400D8881
:101EB00020E00000002C0140000400400008004029
:101EC000000C0040001000400014004000340140AD
:101ED000004C0140005001400054014000180040F7
:101EE000001C004000200040004001400044014030
:101EF000004801404FF6FF7606EA05252A434DF6D5
:101F0000FF752B400D8906EA05352B434D8806EAFF
:101F100005352B43FA4DA84202D0FA4DA84208D10C
:101F20004BF6FF752C408D894FF6FF7606EA851536
:101F30002C4384808283CD88A0F84050038470BDF8
:101F4000828B4FF2FF331A408283828B4FF6FF73EE
:101F500003EA01231A4382837047F0B50C46154605
:101F6000002200210026078C4EF6FF7C07EA0C07B2
:101F70000784828B018C4FF6FF7707EA043640F620
:101F8000FF473A404FF6FF7707EA05273A434FF6F7
:101F9000FF7707EA03373A43D94FB8420ED0D94FFB
:101FA000B8420BD0B0F1804F08D0D74FB84205D01F
:101FB000D64FB84202D0D64FB84206D14DF6FF7781
:101FC000394046F48057394305E047F6FF5739401A
:101FD00044F48057394382830184F0BD828B4FF6ED
:101FE000F3731A408283828B0A4382837047F0B571
:101FF0000C461546002200210026078C4FF6FF6C88
:1020000007EA0C070784828B018C4FF6FF7707EAFB
:1020100004264FF60C773A404FF6FF7707EA03178E
:102020002F433A43B64FB8420ED0B64FB8420BD00A
:10203000B0F1804F08D0B44FB84205D0B34FB8428A
:1020400002D0B34FB84206D14FF6FF57394046F49D
:102050008077394305E04FF2FF57394044F48077E9
:10206000394382830184F0BD028B4FF2FF331A4063
:102070000283028B4FF6FF7303EA01231A430283A4
:102080007047F0B50C461546002200210026078C4B
:102090004FF6EF7C07EA0C070784028B018C4FF6A2
:1020A000FF7707EA041640F6FF473A404FF6FF77FE
:1020B00007EA03373A434FF6FF7707EA05273A4323
:1020C0008F4FB8420ED08F4FB8420BD0B0F1804F37
:1020D00008D08D4FB84205D08C4FB84202D08C4FFB
:1020E000B84206D14FF6DF77394046F01007394342
:1020F00005E04FF65F77394044F01007394302831B
:102100000184F0BD028B4FF6F3731A400283028BF9
:102110000A4302837047F0B50C46154600220021A1
:10212000068C4FF6FE773E400684028B018C4FF6FC
:102130000C7632407E1C06EA03162E433243704E64
:10214000B0420ED06F4EB0420BD0B0F1804F08D0ED
:102150006D4EB04205D06D4EB04202D06C4EB042D2
:1021600006D14FF6FD76314044F00106314305E0DB
:102170004FF6F576314044F0010631430283018485
:10218000F0BD70B505460C465D4885420ED05D48F1
:1021900085420BD0B5F1804F08D05B48854205D011
:1021A0005A48854202D05A48854200D100E000BF1B
:1021B000208850B92389A28861882846FFF7ABFFA1
:1021C000E1882846FFF79EFF25E0208804280AD1F1
:1021D0002389A28861882846FFF753FFE1882846B3
:1021E000FFF742FF17E0208808280AD12389A28838
:1021F00061882846FFF7FBFEE1882846FFF7EEFEE0
:1022000009E02389A28861882846FFF7A6FEE188B5
:102210002846FFF795FE70BD2DE9F04105460C46B6
:1022200000260127608808B9022600E00026A08861
:10223000012801D1022700E001272088A0B92389C5
:10224000A28861882846FFF766FFE1882846FFF7E5
:1022500059FF23893A4631462846FFF712FFE188A5
:102260002846FFF701FF13E02389A28861882846EA
:10227000FFF707FFE1882846FFF7F6FE23893A4675
:1022800031462846FFF747FFE1882846FFF73AFF27
:10229000BDE8F0810A884B881A438B881A43CB88A3
:1022A0001A430B891A434B891A438B891A43A0F8A6
:1022B000442070474FF6FF71818000210180C1806A
:1022C0004180017270470021018041808180C1807E
:1022D000018141818181C18170470021018041805C
:1022E000012181800021C18001817047002101808E
:1022F00041808180C18001814181818170470000DE
:10230000002C01400034014000040040000800405F
:10231000000C004021B1028842F00102028004E07A
:1023200002884FF6FE731A400280704731B1B0F850
:10233000442042F40042A0F8442005E0B0F84420D4
:10234000C2F30E02A0F8442070471AB183890B43F0
:10235000838102E083898B43838170478182704748
:1023600041EA0203A0F8483070471AB183890B4351
:10237000838102E083898B438381704701894FF613
:10238000F8721140018170470A46002101894FF619
:102390008F73194011430181704730B504460D46D3
:1023A00029462046FFF7F0FF208940F007002081F2
:1023B00030BD2DE9F04104460D4616461F46602DFE
:1023C00006D13B46012231462046FFF75AFE05E082
:1023D0003B46012231462046FFF79DFE2946204616
:1023E000FFF7D2FF208940F007002081BDE8F0818F
:1023F00030B50C4600210189C9B24FF6FF7505EAD8
:102400000325154325432943018130BD2DE9F041C2
:1024100005460E4617469846002443463A4631463E
:102420002846FFF7E5FF2C894FF6F870044044F08A
:1024300007044FF68F70044044F070042C81BDE80F
:10244000F081F0B504460D4616461F463B4632461F
:1024500029462046FFF7CCFF208940F480402081A8
:10246000F0BD0185828270470A46002101884FF63F
:102470008F731940114301807047F0B50C46154623
:102480001E460021002200230189028B038C4FF697
:10249000F877394021434FF6FC473A4040F20117A4
:1024A0003A434FF6DD773B404FF6FF7707EA0617D2
:1024B0002F433B43018102830384F0BD0A46002180
:1024C000018B4FF68F7319401143018370470A4601
:1024D0000021018B48F6FF7319404FF6FF7303EAA2
:1024E00002231943018370470A460021818B4FF66E
:1024F0008F7319401143818370470A460021818BF5
:1025000048F6FF7319404FF6FF7303EA022319439D
:102510008183704721B1028842F08002028004E08A
:1025200002884FF67F731A400280704721B182887B
:1025300042F00402828004E082884FF6FB731A4066
:102540008280704721B1828842F00802828004E0D4
:1025500082884FF6F7731A408280704721B18288D3
:1025600042F00102828004E082884FF6FE731A4036
:10257000828070470A460021018B4FF6F77319409D
:102580001143018370470A460021018B4FF2FF730C
:1025900019404FF6FF7303EA022319430183704782
:1025A0000A460021818B4FF6F7731940114381834E
:1025B00070470A460021818B4FF2FF7319404FF696
:1025C000FF7303EA02231943818370470A460021FF
:1025D000018B4FF6FB7319401143018370470A4684
:1025E0000021018B4FF6FF3319404FF6FF7303EACA
:1025F00002231943018370470A460021818B4FF65D
:10260000FB7319401143818370470A460021818B77
:102610004FF6FF3319404FF6FF7303EA02231943C5
:10262000818370470A460021018B4FF67F73194062
:102630001143018370470A460021018BC1F30E014B
:102640004FF6FF7303EA02231943018370470A46DA
:102650000021818B4FF67F731940114381837047AE
:102660000A460021818BC1F30E014FF6FF7303EA86
:1026700002231943818370470A460021018C4FF6DB
:10268000FD7319401143018470470A460021018CF3
:102690004FF6F77319401143018470470A46002131
:1026A000018C4FF6DF7319404FF6FF7303EA0213F4
:1026B0001943018470470A460021018C4FF67F734D
:1026C00019404FF6FF7303EA021319430184704760
:1026D0000A460021018C4FF6FF5319404FF6FF7355
:1026E00003EA02231943018470470A460021018C42
:1026F0004FF2FF7319404FF6FF7303EA02231943A9
:10270000018470470A460021018C4DF6FF73194081
:102710004FF6FF7303EA023319430184704730B563
:10272000002301248C40A3B2048C9C430484048CB9
:1027300002FA01F5ADB22C43048430BD30B500235C
:1027400004248C40A3B2048C9C430484048C02FABD
:1027500001F5ADB22C43048430BD70B503460020B2
:1027600000241846183001258D40ACB21D8CA543BD
:102770001D8409B1082909D100EB6100056825F025
:10278000700505600568154305600EE00D1FC5F373
:102790004E052844056825F4E045056005684FF6B8
:1027A000FF7606EA02263543056070BD21B1028836
:1027B00042F00202028004E002884FF6FD731A40E4
:1027C0000280704721B1028842F00402028004E0D6
:1027D00002884FF6FB731A400280704721B182884D
:1027E00042F08002828004E082884FF67F731A40B4
:1027F0008280704702884FF6F7731A400280028881
:102800000A430280704782884FF68F731A40828095
:1028100082880A438280704702894FF6F8731A4013
:10282000028102890A430281704702894FF67F7351
:102830001A40028102890A430281704781847047ED
:10284000818570478186704701877047818770470F
:10285000A0F84010704702884FF6FF431A400280EC
:1028600002880A43028070470146888E70470146FD
:10287000088F70470146888F70470146B1F84000C5
:1028800070470146888C70470146088D70470246A4
:102890000020138A0B400BB1012000E0002070479C
:1028A000CA430282704730B502460020002300244C
:1028B000158A05EA0103958905EA010413B10CB1F3
:1028C000012000E0002030BDCA43028270470000B2
:1028D00010B50446FB48844209D101218803FEF764
:1028E000FBFF00214FF48040FEF7F6FF32E0F64890
:1028F000844209D101214804FEF7FBFF00214FF477
:102900000030FEF7F6FF25E0F048844209D10121AE
:102910008804FEF7EEFF00214FF48020FEF7E9FF68
:1029200018E0EB48844209D10121C804FEF7E1FF19
:1029300000214FF40020FEF7DCFF0BE0E548844265
:1029400008D101210805FEF7D4FF00214FF48010C3
:10295000FEF7CFFF10BD2DE9F04786B005460E46C5
:102960000024A24600BFA1460027B08900B100BFE5
:102970002F462C8A4CF6FF700440F08804432C82CA
:10298000AC894EF6F3100440B08831890843718950
:1029900008430443AC81AC8A4FF6FF400440B08941
:1029A0000443AC8201A8FEF710FFC648874202D15B
:1029B000DDF810A001E0DDF80CA0A88900F40040CB
:1029C00040B10AEBCA0000EB0A1031684900B0FBC5
:1029D000F1F807E00AEBCA0000EB0A103168890041
:1029E000B0FBF1F86420B8FBF0F004012009642189
:1029F00001FB1089A88900F4004040B1322000EBAF
:102A0000C900B0FBF1F000F00700044308E03220F9
:102A100000EB09106421B0FBF1F000F00F0004435B
:102A20002C8106B0BDE8F0874FF4165101600021FB
:102A30008180C18001810C21418100218181704709
:102A400010B502460020108A4FF2FF0318400B8891
:102A50004C8823438C882343CC882343184310821B
:102A600010BD0021018041808180C180704721B16B
:102A7000828942F40052828104E082894DF6FF731C
:102A80001A4082817047F0B50346002400260025D5
:102A9000002040F66A17B94200D100BF1846C1F3C2
:102AA000421401F01F06012707FA06F5012C01D197
:102AB0000C3004E0022C01D1103000E014301AB1C7
:102AC00007682F43076002E00768AF430760F0BD67
:102AD0001AB1838A0B43838202E0838A8B43838209
:102AE0007047028A4FF6F0731A400282028A0A4344
:102AF0000282704782894FF2FF731A408281828975
:102B00000A438281704721B1828942F002028281A8
:102B100004E082894FF6FD731A4082817047028A71
:102B20004FF6DF731A400282028A0A43028270471C
:102B300021B1028A42F48042028204E0028A4BF60A
:102B4000FF731A4002827047C1F308028280704707
:102B500001468888C0F308007047818941F001016F
:102B600081817047028BD2B20283028B42EA01223A
:102B700002837047028B02F47F420283028B0A4376
:102B80000283704721B1828A42F02002828204E0EF
:102B9000828A4FF6DF731A408282704721B1828A9F
:102BA00042F01002828204E0828A4FF6EF731A40EC
:102BB0008282704721B1828A42F00802828204E058
:102BC000828A4FF6F7731A408282704721B1828958
:102BD00042F40042828103E08289C2F30E028281C4
:102BE000704721B1828A42F40062828204E0828AC4
:102BF0004FF2FF731A4082827047828A4FF6FB734E
:102C00001A408282828A0A438282704721B1828A74
:102C100042F00202828204E0828A4FF6FD731A407B
:102C20008282704702460020B1F5007F00D100BFCC
:102C300013880B400BB1012000E00020704701F425
:102C40000072B2F5007F00D100BFCA430280704716
:102C500070B50246002400230025002040F66A16C5
:102C6000B14200D100BFC1F3421501F01F0301269C
:102C700006FA03F3012D02D19689334006E0022DB6
:102C800002D1168A334001E0968A33400C120126A5
:102C900006FA04F41688344013B10CB1012000E0A8
:102CA000002070BD10B50022002340F66A14A14236
:102CB00000D100BF0A1201249440A3B2DC43048077
:102CC00010BD0000003801400044004000480040B2
:102CD000004C0040005000400CB5002001900090D6
:102CE0006C48006840F480306A49086000BF694859
:102CF000006800F4003000900198401C019000989A
:102D000018B90198B0F5A06FF1D16248006800F4DD
:102D1000003010B10120009001E0002000900098E8
:102D2000012843D15C48006840F010005A4908600F
:102D30000846006820F0030008600846006840F07C
:102D4000020008605348406852494860084640689D
:102D500048600846406840F4806048600846406823
:102D600020F47C1048600846406840F4E810486051
:102D70000846006840F08070086000BF4548006861
:102D800000F000700028F9D04248406820F00300AD
:102D9000404948600846406840F00200486000BF73
:102DA0003C48406800F00C000828F9D10CBD10B573
:102DB000FFF792FF10BD10B53648006840F00100E3
:102DC0003449086008464068344908403149486041
:102DD00008460068324908402E49086008460068E5
:102DE00020F4802008600846406820F4FE00486017
:102DF0004FF41F008860FFF7DAFF4FF000602949A9
:102E0000086010BD10B5002100200022214B5B6836
:102E100003F00C0121B1042906D0082928D107E0CC
:102E2000214B224C236027E01F4B204C236023E0E2
:102E3000184B5B6803F47010164B5B6803F4803228
:102E4000022303EB904022B9194B4343174C2360F4
:102E50000DE0104B5B6803F4003323B1144B434384
:102E6000124C236003E0104B4343104C236003E0FB
:102E70000D4B0E4C236000BF00BF064B5B68C3F3D5
:102E800003130C4CE15C094B1B68CB40074C2360DF
:102E900010BD000000100240002002400000FFF8BA
:102EA000FFFFF6FE08ED00E000127A00500000205F
:102EB00000093D005400002000B585B0012144F216
:102EC0000400FEF7EFFC4FF40070ADF8100018207E
:102ED0008DF8130003208DF8120004A92B48FDF78C
:102EE000BDFF4FF48060ADF8100004208DF8130092
:102EF00004A92648FDF7B2FF4FF4165000900020B9
:102F0000ADF80400ADF80600ADF80800ADF80C000F
:102F10000C20ADF80A0069461D48FFF71CFD012290
:102F200040F225511A48FFF7AEFD01211848FFF77E
:102F30009EFD05B000BD08B54FF4A060FDF746FA50
:102F400025208DF8000001208DF8010000208DF86B
:102F5000020001208DF803006846FDF73CFA08BD29
:102F600070B505460E4600240CE0295D0848FFF7C1
:102F7000EBFD00BF0648008800F080000028F9D073
:102F8000601CC4B2B442F0DB70BD00000008014018
:102F90000038014000B585B001210420FEF782FC15
:102FA00001214804FEF78BFC0420ADF81000182026
:102FB0008DF8130003208DF8120004A92F48FDF7A7
:102FC0004DFF0820ADF8100004208DF8130004A96F
:102FD0002A48FDF743FF4FF4E13000900020ADF8A0
:102FE0000400ADF80600ADF80800ADF80C000C20A8
:102FF000ADF80A0069462248FFF7ADFC01212048E0
:10300000FFF735FD05B000BD08B54FF4A060FDF732
:10301000DDF926208DF8000004208DF80100002045
:103020008DF8020001208DF803006846FDF7D3F902
:1030300008BD70B505460E4600240CE0295D104819
:10304000FFF782FD00BF0E48008800F080000028D6
:10305000F9D0601CC4B2B442F0DB70BD70B5044658
:103060000D46E1B20648FFF76FFD00BF0448008837
:1030700000F080000028F9D0204670BD0008014013
:103080000044004000B585B001211120FEF70AFC84
:1030900001218804FEF713FC01213548FDF7AFFF3D
:1030A0004FF48060ADF8100018208DF81300032055
:1030B0008DF8120004A92F48FDF7D0FE4FF40060F0
:1030C000ADF8100004208DF8130004A92948FDF77D
:1030D000C5FE4FF4965000904FF48050ADF80400B8
:1030E0000020ADF806004FF48060ADF80800002025
:1030F000ADF80C000C20ADF80A0069461E48FFF739
:103100002AFC012240F225511B48FFF7BCFC01219B
:103110001948FFF7ACFC05B000BD08B54FF4A0603E
:10312000FDF754F927208DF8000004208DF80100E8
:1031300000208DF8020001208DF803006846FDF79D
:103140004AF908BD70B505460E4600240CE0295D1D
:103150000948FFF7F9FC00BF0748008800F080002D
:103160000028F9D0601CC4B2B442F0DB70BD00008E
:1031700010001400001001400048004008B5012173
:103180000846FEF782FB01214FF40170FEF78AFB2F
:103190000320ADF8000000208DF803006946654863
:1031A000FDF75CFE08BD00B591B06348FDF7CCFCAF
:1031B000624806906248079000200890022009901B
:1031C00000200A9080200B9040000C9080000D9011
:1031D00020200E9000020F900020109006A9564863
:1031E000FDF754FD01215448FDF77BFD00200190BF
:1031F00001208DF808008DF809004FF4602003903D
:103200000020049002208DF8140001A94B484C388E
:10321000FDF771F905230122002148484C38FDF7DC
:1032200002FA05230222012144484C38FDF7FBF93C
:10323000012142484C38FDF795F901213F484C38AF
:10324000FDF785F93D484C38FDF7A3F900BF3B4831
:103250004C38FDF7A3F90028F9D138484C38FDF770
:10326000A7F900BF35484C38FDF7A7F90028F9D178
:10327000012132484C38FDF7AAF911B000BD10B554
:10328000FFF77CFFFFF78FFF10BD2D4A12880280E9
:103290002B4A52880A8070472DE9F041044628499C
:1032A000088802F0BFFF06464FF08B4102F092FE05
:1032B000054629464FF07E5002F054FE0746294647
:1032C000204802F055FE8046394602F083FE06464D
:1032D0001D4902F04DFE20601C49206802F048FEA6
:1032E000804602F0DBFF074602F086FD064602F04C
:1032F00090FF2060BDE8F0812DE9F04104461049BF
:10330000488802F08FFF06464FF08B4102F062FEC4
:10331000054629464FF07E5002F024FE0646294617
:103320000B4802F025FE0746314602F053FE2060AE
:10333000BDE8F08100080140080002404C24014033
:10334000640000200000E03F00007A4400002041BB
:10335000000048432DE9F0470446204602F062FF92
:1033600081462949484602F035FE81464FF08B419F
:10337000484602F0FDFD824602F0DCFF07460022CF
:10338000224B02F0D7FE054602F0E7FF8146484691
:1033900002F084FF85B229460020FDF798FBBDE8C6
:1033A000F08700B585B001210420FEF77BFA0121EA
:1033B0004807FEF784FA1020ADF8100000208DF8C1
:1033C000130003208DF8120004A91148FDF746FDF3
:1033D0000020009001900290022003906946002096
:1033E000FDF7F7FA01210020FDF710FB0021084648
:1033F000FDF76DFB012001F09CFA4FF4FA60FFF736
:10340000A9FF05B000BD000000007A4400000440A0
:103410000008014008B54FF4A060FCF7D7FF1C205E
:103420008DF8000003208DF8010000208DF80200C7
:1034300001208DF803006846FCF7CDFF08BD0EB5EE
:1034400001210846FEF73BFA4FF08040FEF732FBC1
:103450004FF47A70ADF804004720ADF8000000206A
:10346000ADF80600ADF8020069464FF08040FEF767
:10347000F5FB01218807FFF713FA01221146900797
:10348000FEF763FF01218807FEF744FF00210120BA
:10349000FEF715FA0EBD10B5FFF7D1FF10BD000005
:1034A00008B501210420FEF70AFA01210820FEF7E1
:1034B000F9F94FF40070ADF8000018208DF8030002
:1034C00003208DF8020069462248FDF7C7FC08BDBD
:1034D00010B588B04FF4FA744CF25030ADF81800C3
:1034E0000A20ADF814000020ADF81A00ADF816005F
:1034F00005A91948FEF7B2FB6020ADF804000120D1
:10350000ADF80600ADF80A400020ADF80C0001A9A6
:103510001148FEF7BAFC08210F48FFF74AF80121CD
:103520000D48FEF7F7FF01210B48FEF7F3FE08B048
:1035300010BD10B5044621460748FFF789F910BDB4
:1035400010B5FFF7ADFFFFF7C3FF4CF25030FFF7A8
:10355000F0FF10BD000C01400008004008B501213B
:103560000820FEF79FF901218805FEF7A8F94FF41E
:103570004060ADF8000003208DF802001C208DF89B
:10358000030069461348FDF769FC08BD1FB500201C
:10359000ADF804004BF6FF70ADF806000A20ADF858
:1035A00008004FF48060ADF80A000001ADF80C008F
:1035B0000948009001210948FDF735FE6946074892
:1035C000FDF7B3FD1FBD10B5FFF7C8FFFFF7DEFF26
:1035D00010BD0000000C0140801A06000058004099
:1035E00008B54FF4A060FCF7F1FE03208DF8000051
:1035F00000208DF801008DF8020001208DF80300F5
:103600006846FCF7E8FE08BD10B501214FF0C05038
:10361000FEF755F90120FDF77CFFFDF76DF901205C
:10362000FEF7ADF800BF4120FEF711F80028FAD0F0
:103630004FF48070FEF7BFF80120FEF7C2F8FEF7E6
:10364000FAF9FEF7EFF901210846FEF78FF9FEF7C8
:10365000E9F947F6FF70FEF7BFF9FEF7E3F910BD91
:1036600010B50446FFF7D0FF7B20FDF7F0FF18B13F
:10367000DCA002F0A9FF06E07A20FDF7E8FF10B118
:10368000E1A002F0A1FFE9A002F09EFFFEF7D3F94E
:1036900001210846FEF76AF9FEF7C4F9FEF740F982
:1036A00010BD10B504462046FFF7DAFF10BD10B577
:1036B00001460869801E0861002805DC08690C3095
:1036C00008614869401E48616423486990FBF3F033
:1036D0004A69D31702EB9373C0EBA3004FF4C8748D
:1036E00092FBF4F3034440F26F14086960430C2426
:1036F00090FBF4F01844CB68034440F26D1402FBD5
:103700000430D24BC01A00EB40008B6803EBC000C2
:10371000C0EB00104B6803EB8000C0EB00100B689F
:1037200003EB8000A0F5E14010BDF0B58DB004467C
:103730003022C74901A802F09FFB6069451E642141
:1037400095FBF1F12846EA1705EB9272C1EBA20155
:103750004FF4C87295FBF2F28F186069C11700EB45
:1037600091718910A0EB810191B96422616991FB8B
:10377000F2F302FB131131B99200616991FBF2F38C
:1037800002FB131121B92169022901DD012600E0A4
:10379000002640F26D1005FB00712069401E01AA51
:1037A00052F820000844E16808440644072096FBCC
:1037B000F0F100FB1160A0610DB0F0BD4A694261FB
:1037C0000A690261CA68C2608A6882604A684260A7
:1037D0000A680260704770B504460D46FEF722F98C
:1037E00029462046FFF7EAFF2046FFF79EFF2046C6
:1037F000FFF75DFF0646FEF7E2F8FEF713F970BD2E
:1038000010B50446FFF700FF21469248FFF7E3FF9B
:103810004AF2A5510420FDF798F810BD7CB5054685
:1038200000240020009001901BE000BF20218A4866
:10383000FFF7F8F90028F9D08748FFF789F9214602
:10384000641C4DF82100601E5DF82000302804D370
:10385000601E5DF82000392803D980A002F0B4FE74
:10386000641E022CE1D3019830380099303901EB05
:10387000810100EB4104AC4205D9294684A002F045
:10388000A3FEFF207CBDE0B2FCE72DE9F041074636
:103890000C468B48B7FBF0F6B7FBF0F100FB117854
:1038A0004FF4616098FBF0F0A0604FF4616098FB0A
:1038B000F0F100FB11803C2190FBF1F060604FF4CF
:1038C000616098FBF0F100FB11803C2190FBF1F26C
:1038D00001FB1200206040F2B27509E005F0030020
:1038E00010B94FF4B77001E040F26D10361A6D1C3C
:1038F00005F0030010B94FF4B77001E040F26D100D
:10390000B042EBDD65616069C11700EB9171891010
:10391000A0EB810111B91D206A494860012505E02D
:10392000681E684951F82000361A6D1C681E6549EA
:1039300051F82000B042F3DD1C2048602561701C66
:10394000E0602046FFF7F1FEBDE8F08170B5044667
:103950000D4604F5E14629463046FFF796FF70BD57
:1039600070B5044658480078012808D1FEF71EF8C3
:1039700005462146FFF7EAFF00205349087070BD55
:1039800034494969416133490969016131494969EA
:10399000C1603049896881602E49496841602D497C
:1039A000096801602B4989698161704770B50246D9
:1039B000284E3479357A0020167AAE1BF3B2002BEC
:1039C00002DA03F11806F3B21679A61BF1B2002948
:1039D00002DA01F13C06F1B2C3EB031601EB8600FB
:1039E00070BD00000D0A0D0A20506F776572204FE0
:1039F0006E205265736574206F63637572726564BF
:103A00002E2E2E2E000000000D0A0D0A204578747F
:103A100065726E616C205265736574206F636375A7
:103A2000727265642E2E2E2E000000000D0A204EAC
:103A30006F206E65656420746F20636F6E666967C2
:103A4000757265205254432E2E2E2E008BFA0A00DA
:103A50005C67000894010020004400400A0D506C8F
:103A60006561736520656E7465722076616C69644A
:103A7000206E756D626572206265747765656E2073
:103A80003020616E642039202D2D3E3A2020000028
:103A90000A0D506C6561736520656E7465722076E1
:103AA000616C6964206E756D626572206265747701
:103AB00065656E203020616E642025640000000082
:103AC000805101006C0000209C00002008B50121FD
:103AD0001020FDF7E7FE4FF40070ADF80000102055
:103AE0008DF8030003208DF8020069464448FDF775
:103AF000B5F94FF400714248FDF75DFA08BD08B50D
:103B000001211020FDF7CEFE4FF4C070ADF800008B
:103B100014208DF8030003208DF802006946384810
:103B2000FDF79CF980213648FDF747FA4FF4807184
:103B30003348FDF742FA08BD08B501210820FDF71A
:103B4000B1FE01210920FDF7ADFE01212D48FDF751
:103B500056FA0820ADF8000014208DF80300032069
:103B60008DF8020069462848FDF778F908212648B3
:103B7000FDF723FA08BD08B501210420FDF792FEE8
:103B80008020ADF8000010208DF8030003208DF890
:103B9000020069461D48FDF761F980211B48FDF7C9
:103BA0000CFA08BD08B501210420FDF77BFE0121B8
:103BB0000520FDF777FE01211248FDF720FA4FF4AA
:103BC0000040ADF8000010208DF8030003208DF8B0
:103BD000020069460D48FDF741F94FF400410B48DA
:103BE000FDF7E9F908BD10B5FFF770FFFFF7DAFF41
:103BF000FFF7A2FFFFF7BFFFFFF781FF10BD000037
:103C00000010014000023000000C0140000801409B
:103C10002DE9F0470446204602F004FB814628497E
:103C2000484602F0D7F981464FF08B41484602F0F2
:103C30009FF9824602F07EFB07460022214B02F0EC
:103C400079FA054602F089FB8146484602F026FBD8
:103C500085B229460020FCF747FFBDE8F08700B594
:103C600085B001210420FDF71DFE01214807FDF765
:103C700026FE2020ADF8100000208DF81300032050
:103C80008DF8120004A91048FDF7E8F80020009014
:103C9000019002900220039069461020FCF799FEE3
:103CA00001211020FCF7B2FE00210846FCF71CFFA2
:103CB000012000F03EFE0020FFF7AAFF05B000BD86
:103CC00000007A44000004400008014010B540F2B2
:103CD000E270FE494861012008611A20C8600B208B
:103CE0008860002048601E2008600846FFF788FDB5
:103CF00010BD10B5FFF71FF9FFF78CFBFFF70DFAAA
:103D0000FFF76EFC10BD10B5FFF76DFF00F0DCFD96
:103D1000FFF7C1FBFFF7D0F8FFF73CF900F020FEFA
:103D2000FFF7B0F901F0C0F9FFF73BFBFFF797FF92
:103D3000FFF7A5FAFFF704FCFFF7DBFFE448FFF706
:103D4000B0FC002001F047F8E249C860142000F000
:103D5000F0FD082001F03FF8044602F063FADD4967
:103D6000C861FFF7B3FFDCA002F02EFCD948C168A0
:103D7000DDA002F029FCD648FFF7F2FD1C22D44951
:103D8000DE4802F079F801210846FDF798FD01218F
:103D90008807FEF7BFFA10BDD9480068502802D244
:103DA0000120D84A1060D6480068502802D202206C
:103DB000D44A1060D2484068642806D2C54840887A
:103DC0000A2802DD0320CF4A1060CD4A5268CE4B4C
:103DD0001B68D01A002801DB024600E0424211466F
:103DE000642904D9C9480068401CC84A1060C74803
:103DF0000068142805D90020C44A10600420C14A74
:103E000010600020B34A107008B1C04A1060BC486E
:103E10004068BD4A106070470120BD4981F82C0000
:103E2000AB48007A4870AA4800790870A848017A1F
:103E3000B748C170A64800790A30B549887001209A
:103E400088800A20C8800120088114204881012030
:103E500088811E20C88101200882282048820120F4
:103E600088823220C882012008833C2048830120B8
:103E700088834620C883012008845020488401207C
:103E800088845A20C88401200885642048857047AA
:103E900010B5A0488088B0F55F4F23D19E480088B8
:103EA000012809D180219D48FDF787F84FF48071E2
:103EB0009A48FDF782F815E080219848FDF77BF8D5
:103EC0004FF480719548FDF776F841F2707000F07C
:103ED00030FD80219148FDF770F84FF480718F48D4
:103EE000FDF76BF88B4880884DF60171884212D13E
:103EF000012080F3138800BF00BF8948006800F4E8
:103F0000E06088490843001D85490860BFF3408F81
:103F100000BF00BFFEE77F4880884DF602718842EF
:103F20000AD10821002000F02CFF142000F001FD30
:103F30000021084600F025FF764880884DF609717B
:103F4000884223D17448408A18B9012061494870D9
:103F50001CE07148408AB0F5D07F03D101205D4953
:103F6000087013E06C48408A40F25F11884203D128
:103F700000205849087009E06748408AB0F5407F42
:103F800004D1032053494870FFF746FF61488088F9
:103F90004DF60A71884205D102204E4948705E48AC
:103FA000808A48805B4880884DF60C71884205D134
:103FB0000120484908715848808AC88010BD70B5F2
:103FC000002444480078012804D1C1035648FCF776
:103FD000F4FF07E04FF400415348FCF7ECFF0020EA
:103FE0003C4948804548FFF7E1FC0446B4F5B46F0E
:103FF00014DD3849C868002100F0C3FE142000F029
:1040000098FC3449C86902F049F90546082100F0D6
:10401000B8FE1C222E49394801F02EFF70BD70B544
:1040200004462C484480408800EB4001C1EBC0109E
:104030004CF25031A1EB800085B22846FFF779FAA7
:104040002448408800EB80004FF6FF7101EA8006AB
:104050003046FFF7DDFD1F484088012803DA0020C5
:104060001C49087002E001201A49087070BD2DE952
:10407000F04118484078012811D12C492C4800689B
:1040800002F092F902D20120124908702949284809
:10409000006802F07FF902D200200E4908700D4836
:1040A0004078022803D10B494888FFF7B8FF094838
:1040B0004078032876D116480088060A1448077805
:1040C0004088040A12488578014835E0B001002094
:1040D0009401002098030020746573742074696D46
:1040E00065720D0A00000000696E69742066696ED1
:1040F0006973682025640D0A00000000CC010020CF
:10410000E8010020DC000020EC000020F00000208E
:10411000BC030020580300201C06002000100140B2
:104120000CED00E00000FA050008014000007A44B0
:10413000E4000020000066448068A0420ADBFE48DC
:104140004068A84206DB0020FC4981F82C0064206E
:10415000FB490870F94890F82C0001287ED1F848F6
:10416000007805287BD005DC7AD2DFE800F0234216
:104170006086AA00082874D004DC062872D00728BC
:104180006ED1F8E009286ED06428F9D11C22EA49E2
:10419000EC4801F071FEE848806820B96420E849E5
:1041A000087003E050E10020E5490870E6A002F045
:1041B0000BFA47E1E149C888FFF731FFE148FFF713
:1041C000F5FBE4490880E4A002F0FEF9DB488088B2
:1041D000E0490988884208DC0120D94908701C227E
:1041E000D549D84801F048FE02E00020D4490870C3
:1041F00028E1DBA002F0E8F9D0494889FFF70FFF7A
:10420000D048FFF7D3FBD3490880CC480089098800
:10421000884208DC0220CA4908701C22C649C948E5
:1042200001F02AFE02E00120C54908700AE1C349F5
:10423000C889FFF7F4FEC348FFF7B8FBC5490880FB
:10424000C9A002F0C1F9BD488089C24909888842E5
:104250000FDC0320BA4908701C2205E0F3E04EE0B1
:10426000E7E0A6E069E0C2E0B349B64801F004FE29
:1042700002E00220B2490870E4E0B049488AFFF742
:10428000CEFEB048FFF792FBB2490880084601888D
:10429000B7A002F099F9B9A002F096F9A748008AF0
:1042A000AC490988884208DC0420A54908701C2212
:1042B000A149A44801F0E0FD02E00320A0490870F4
:1042C000C0E0B0A002F080F99C49C88AFFF7A7FEC1
:1042D0009C48FFF76BFB9F4908809848808A0988B3
:1042E000884208DC0520964908701C2292499548AE
:1042F00001F0C2FD02E0042091490870A2E0A3A0F1
:1043000002F062F98D49488BFFF789FE8D48FFF76F
:104310004DFB904908808948008B0988884208DC59
:104320000720874908701C228349864801F0A4FDB4
:1043300002E006208249087084E096A002F044F969
:104340007E49C88BFFF76BFE7E48FFF72FFB814944
:1043500008807A48808B0988884208DC08207849E0
:1043600008701C227449774801F086FD02E007209E
:104370007349087066E089A002F026F96F49488CFD
:10438000FFF74DFE6F48FFF711FB724908806B483D
:10439000008C0988884208DC0820694908701C22C2
:1043A0006549684801F068FD02E00720644908702B
:1043B00048E07CA002F008F96049C88CFFF72FFEA6
:1043C0006048FFF7F3FA634908805C48808C0988ED
:1043D000884208DC09205A4908701C22564959486D
:1043E00001F04AFD02E00820554908702AE06FA05C
:1043F00002F0EAF85149488DFFF711FE5148FFF7E6
:10440000D5FA544908804D48008D098888420CDC53
:1044100064204B4908700020484981F82C001C2278
:104420004549484801F028FD02E009204449087048
:1044300008E06420424908701C223F49414801F0CD
:104440001BFD00BF00BF00BF5A480079012807D1FB
:104450005848C08800B25849088000205549087162
:10446000FFF7ADFDBDE8F08170B53348808800B23C
:10447000524908805248008820B92F48808800B2ED
:10448000504908804E48008810B901204C490880E6
:104490004A48B0F900004B49B1F90010884207DAE8
:1044A000464800883C3047490988401A84B205E0F4
:1044B0004248008843490988401A84B23E48B0F90E
:1044C0000000844236DB01203F4908803B48B0F9B8
:1044D00000003C4908803748007801282BD1354836
:1044E0000089354909880844324908810846C0686E
:1044F0003149B1F9001008442E49C8603348C068FA
:104500002D49B1F9001048433C2190FBF1F63046AB
:1045100001F07FFE054627488169284601F0D0FC5E
:10452000244988612948C0682349B1F900104843EB
:104530003C214DE070E06BE094010020BC030020C2
:10454000E800002028020020737465703130300DBF
:104550000A000000EA00002073746570300D0A0044
:1045600073746570310D0A0073746570320D0A0042
:104570006474203D2025640D0A000000737465708A
:10458000330D0A0073746570340D0A00737465701E
:10459000350D0A0073746570360D0A00737465700A
:1045A000370D0A0073746570380D0A0073746570F6
:1045B000390D0A0098030020D6000020D400002006
:1045C000D0000020D2000020D8000020E801002008
:1045D00090FBF1F6304601F01CFE05468D48C1699E
:1045E000284601F06DFC8B49C86188698A4901F051
:1045F000F1FC054601F052FE86490882C8698649E9
:1046000001F0E8FC054601F049FE8249486103E0FB
:10461000002080490881886170BD0EB57F48008800
:10462000012806D101F028FA01F019F900207B4990
:1046300008807A484088012802D1002077494880C4
:1046400076488088012828D1754890F83C000128D8
:104650000BD173488088B0F5804F1BD1714801F0B1
:104660008EFB7048FFF7CCF814E06F48FFF778F93D
:10467000FFF7FAFE6C4800686B4949686A4A92681D
:10468000CDE9002102906848C3680269416967A0CA
:1046900001F09AFF0020614988806048C0880128A5
:1046A0000AD16748FEF728FE6648FEF7F5FDFFF7DA
:1046B000DEFC00205949C88058480089012817D1DC
:1046C000574890F83C00012805D1FFF7E1FB002096
:1046D000534981F83C005C48008820B100205A49C9
:1046E000088001F0F3FAFFF757FB00204B490881DF
:1046F0004A484089012825D100F05AFD534800F06E
:1047000093FE5248016852A001F05EFF4F48416895
:1047100053A001F059FF4D48C16854A001F054FF67
:104720004A48018A54A001F04FFF3A48018A54A038
:1047300001F04AFF3748416957A001F045FF0020CA
:10474000364948810EBD3849898809B2584A1180D6
:104750005849098821B93449898809B2564A1180D3
:104760005449098811B90121524A11805049B1F9BF
:104770000010514AB2F90020914207DA4C490988E9
:104780003C314D4A1288891A88B205E048490988A7
:10479000494A1288891A88B24849B1F900108842FA
:1047A00007DB0121284A11804149B1F90010424A32
:1047B0001180704710B5002429E041480088FEF7B9
:1047C000B8FE322000F0B5F83D480088B0F57A7F99
:1047D00002DA00203B490880394800884BF66871AE
:1047E000884202DD0120374908803648008830B908
:1047F0003348008800F5FA703149088005E03048F8
:104800000088A0F5FA702E490880601CC4B2642CA0
:10481000D3DB10BD9803002000007A4488010020FB
:1048200058030020B00100209401002025642D25AC
:10483000642D25642D25642D25642D25640D0A0025
:10484000E4000020E0000020D8000020E801002063
:10485000766F6C746167652025640D0A00000000A6
:10486000637272656E742025640D0A00706F77653F
:10487000722025640D0A000070662025640D0A0070
:104880007573655F656E657267795F746F6E696772
:1048900068742025640D0A007573655F656E657226
:1048A00067795F746F74616C2025640D0A000000E5
:1048B000D4000020D0000020D2000020D60000202C
:1048C000F4000020F600002030B520480068204A9F
:1048D000B0FBF2F1B1F1807F01D301201DE021F0A6
:1048E0007F40401E4FF0E022506150170F220028F9
:1048F00007DA13071D0E174B00F00F04241F1D5578
:1049000003E013071C0E144B1C5400BF00204FF093
:10491000E022906107201061002008B100BFFEE78F
:1049200030BD0E49086000BF0C4909680029FBD161
:10493000704700B50246002305E04FF47A70FFF798
:10494000F0FF581C83B29342F7DB00BD50000020FB
:1049500040420F0018ED00E000E400E0F800002005
:1049600010B5FEF730FEA020FE49088010BD10B53E
:10497000002400BF0121FC48FCF779FC1421FA480F
:10498000FCF7D4FC0446F74801780022F648FCF70F
:10499000C4FC1421F448FCF7C9FC00F00200002814
:1049A000E8D0F249F048FCF782FD0121EE48FCF71F
:1049B0006AFC10BD70B504460E46154600BF4FF4A4
:1049C0000031E948FCF756FD0028F8D10121E648FE
:1049D000FCF74DFC00BFE649E348FCF729FD002841
:1049E000F9D0E04801780022DF48FCF796FC00BFD0
:1049F000E049DD48FCF71CFD0028F9D03146DA48D3
:104A0000FCF785FC00BFDB49891CD748FCF710FD8B
:104A10000028F8D00CE02178D348FCF778FC641C1F
:104A200000BFD449891CD048FCF702FD0028F8D00B
:104A30002800A5F10101CDB2EDD10121CA48FCF752
:104A400022FC70BD2DE9F04707460D4614464FF095
:104A50000008C146C24600262846E91705EB117139
:104A60000911A5EB011101F0FF0ACAF11000C6B24D
:104A70002046E11704EB1171C1F30718E11704EBAD
:104A800011710911A4EB011101F0FF09BAF1000F36
:104A900028D1B8F1000F07D14A4629463846FFF71A
:104AA00089FFFFF764FF60E00AE0102229463846DC
:104AB000FFF780FFFFF75BFF05F11000C5B210376D
:104AC0005FEA0800A8F1010101F0FF08EDD1B9F19A
:104AD000000F4AD04A4629463846FFF76BFFFFF7DA
:104AE00046FF42E0B8F1000F07D14A462946384652
:104AF000FFF760FFFFF73BFF37E0A01B84B22046C3
:104B0000E11704EB1171C1F30718E11704EB117100
:104B10000911A4EB011101F0FF094EB132462946FB
:104B20003846FFF747FFFFF722FFA819C5B2374401
:104B30000AE0102229463846FFF73CFFFFF717FF2F
:104B400005F11000C5B210375FEA0800A8F10101B5
:104B500001F0FF08EDD1B9F1000F06D04A46294611
:104B60003846FFF727FFFFF702FFBDE8F08770B573
:104B700005460E46144600BF4FF400317A48FCF754
:104B800079FC0028F8D101217748FCF770FB00BFC1
:104B900077497548FCF74CFC0028F9D0714801783A
:104BA00000227148FCF7B9FB00BF72496E48FCF760
:104BB0003FFC0028F9D001216B48FCF734FB31465B
:104BC0006948FCF7A4FB00BF6A49891C6648FCF7EA
:104BD0002FFC0028F8D001216348FCF748FB00BFF8
:104BE00063496148FCF724FC0028F9D05D4801784E
:104BF00001225D48FCF791FB00BF5D49491C5A4802
:104C0000FCF716FC0028F8D016E0012C07D1002193
:104C10005548FCF744FB01215348FCF734FB544949
:104C20003F315148FCF704FC30B15348FCF771FBAD
:104C300028706D1C601E84B2002CE6D101214A4808
:104C4000FCF72DFB70BD70B504460D4601214648AA
:104C5000FCF70DFB00BF46494348FCF7E9FB002881
:104C6000F9D04048017800223F48FCF756FB00BFCE
:104C700040493D48FCF7DCFB0028F9D029463A487A
:104C8000FCF745FB00BF3B49891E3748FCF7D0FBCA
:104C90000028F8D021463448FCF739FB00BF3549DD
:104CA000891C3148FCF7C4FB0028F8D001212E48AC
:104CB000FCF7E9FA70BD70B504460D4601212A489B
:104CC000FCF7D5FA00BF2A492748FCF7B1FB0028BA
:104CD000F9D02448017800222348FCF71EFB00BFCE
:104CE00024492148FCF7A4FB0028F9D029461E4896
:104CF000FCF70DFB00BF1F49891C1B48FCF798FB04
:104D00000028F8D001211848FCF7B1FA00BF184973
:104D10001548FCF78DFB0028F9D0124801780122D4
:104D20001148FCF7FAFA00BF1149491C0E48FCF77C
:104D30007FFB0028F8D00C4800884FF6FF31084070
:104D4000094908800846008840F02000088000BF1C
:104D500007493F310448FCF76BFB0028F8D00248B4
:104D600010300BE02C01002000580040000400101F
:104D700001000300820007000054004000882070FA
:104D800070BD13B50C46E1B29DF80000FFF75BFF64
:104D90000520FFF7CEFD621CD1B29DF80100FFF7A0
:104DA00052FF0520FFF7C5FDA21CD1B29DF80200FD
:104DB000FFF749FF0520FFF7BCFDE21CD1B29DF8CB
:104DC0000300FFF740FF0520FFF7B3FD0020224955
:104DD00081F820001CBD1CB50446E1B26846FFF70F
:104DE0006AFF0520FFF7A5FD601CC1B20DF10100AF
:104DF000FFF761FF0520FFF79CFDA01CC1B20DF17C
:104E00000200FFF758FF0520FFF793FDE01CC1B239
:104E10000DF10300FFF74FFF0520FFF78AFD9DF816
:104E200000008DF804009DF801008DF805009DF844
:104E300002008DF806009DF803008DF807000020A1
:104E4000054981F8200001981CBD10B500210348D8
:104E5000FFF731FF10BD0000980300203001002053
:104E60002DE9F84F05460E4617460FB1042F02DD17
:104E70000020BDE8F88F4FF0020A9EE04FF0010BD2
:104E8000FC48A0F12201C86045F080082238C068C3
:104E900080F800800846C068401CC860C1463C4697
:104EA00013E0601E305CF3492239C9680870F1488C
:104EB0002238C068401CEF492239C860601E305C4F
:104EC000484400F0FF09601EC4B2002CE9DC6FEA20
:104ED000090000F0FF09E7482238C06880F8009018
:104EE000E4482238C068401CE2492239C860B81C36
:104EF0008880E048C8600A461179D068FEF722F938
:104F0000DC48A0F12201C860EA2D03D14320C96822
:104F1000087003E0D7482238C06805700120D549E1
:104F200022398880002048800A461179D068FEF72F
:104F300009F91420FFF7FDFC00200090EA2D19D19B
:104F40003078E52809D1CB48223890F8188008F04D
:104F5000100050BB4FF0000B27E03078DC2824D144
:104F6000C448223890F8188008F01000E8B14FF0DB
:104F7000000B1AE03C4615E00098411CC9B20091B4
:104F8000BC490A3911F800801DB9022C01D14FF03B
:104F90000008601E305C404502D04FF0000B03E07B
:104FA000601EC4B2002CE7DC00BFBBF1010F00D1D2
:104FB00007E0AAF1010000F0FF0ABAF1000F7FF448
:104FC0005DAF00BF584654E72DE9F84F05460E4641
:104FD00017464FF0000BD84617B90020BDE8F88FF0
:104FE0004FF0020A4AE001200090A946A8464FF07F
:104FF000000BA048A0F12201C8602238C06880F8E8
:105000000090012088800A461179D068FEF79AF84E
:105010001420FFF78EFC3C460EE05846411C01F080
:10502000FF0B94490A39095C601E3154305C4044DE
:1050300000F0FF08601EC4B2002CEEDC6FEA08002E
:1050400000F0FF085846411C01F0FF0B89490A395E
:1050500011F80090C14509D0002000903C4603E0C3
:105060000021601E3154C4B2002CF9DC00980128E4
:1050700000D106E0AAF1010000F0FF0ABAF1000F2A
:10508000B1D100BF00207B49223948800098A5E7B4
:1050900008B5FA20009001226946EA20FFF7E0FEF9
:1050A0001420FFF746FC08BDF8B5032072490880BC
:1050B00048804AF6C36088806020C8804FF49070B2
:1050C00008816E486E4901F01CF96B494881002047
:1050D00088818882C882088348838883C88308843B
:1050E0004884888448824FF44070C8846548886248
:1050F0004FF0C0416448604AC2E90C1011468988EB
:10510000490101EBC10202EB0111022282EAC12036
:1051100001F08DF8064632460B465C485C4901F0CA
:1051200009F8044601F019F95349C863594890F841
:10513000340040F00100574981F83400E520009028
:1051400001226946EA20FFF78BFEFFF7A1FF02224A
:1051500049490020FFF784FE00B9F8BD0222464904
:10516000891C0120FFF77CFE00B9F6E702224249C4
:10517000091D1046FFF774FE00B9EEE702223E4912
:10518000891D0320FFF76CFE00B9E6E702223A49C9
:1051900008310420FFF764FE00B9DEE70222364939
:1051A0000A310520FFF75CFE00B9D6E700BFD4E75F
:1051B0002DE9FF5F374890F8340000F0010058B146
:1051C000FFF772FF334890F8340020F001003149B6
:1051D00081F83400BDE8FF9F00200390032203A95B
:1051E0002D20FFF7F1FE039800F4003020B10020DD
:1051F000284981F8280003E00120264981F8280089
:10520000002418E00021244840F82410024602EB54
:10521000840104F12202D0B20322FFF7D5FE1E481A
:105220000C38C06800F4000018B100211A4840F89A
:105230002410601CC4B2032CE4DB022216490C319A
:105240002520FFF7C1FE0422134908392620FFF765
:10525000BBFE11480C38406800F00040F0B10E4829
:105260000C384068C043401C0B490C39486001258C
:1052700015E000006A02002078020020304CA60AE7
:1052800046251241814542397FB6553FA3923A01E6
:105290004D54334018030020E402002000257349D8
:1052A000486800F0BFFF00907148C16B009800F0A3
:1052B0005FFE019001F03EF8074600226D4B00F0C2
:1052C000C7FE824600F0FEFF6B49C86015B10120A1
:1052D0006A49087065494969C1F3160000F0A2FFE8
:1052E00080466348816A404600F042FE074600F06F
:1052F000D5FF614908605D49C86800F0A9FFCDE9A4
:1053000000015B48D0E90C733A46009800F0A0FE1B
:10531000824600F0F6FF81465749C1F8049025B156
:105320000846406840F0004048605348066826F050
:105330007F4606F4000018B16FF07F40B043461C72
:105340004FF46162029901FB02F0C11700EB514179
:10535000C1F3CF31484A51821046007D00F07F00F2
:1053600068B91046007C50B91046007B302806DA38
:1053700000201146087300211046017401753E4853
:10538000406820F00040B0F5A87F05D200203A49DF
:10539000486040F6991008823748806820F0004045
:1053A000B0F5A87F02D20020334988602F48008BD7
:1053B000C0003349B1FBF0F02F49888208464068AD
:1053C00020F00040B0F5AA0F0BD90846008E40F639
:1053D0006511884208DA2848008E401C2649088654
:1053E00002E00020244908862448007828B1224899
:1053F000008A40F400402049088200201B49C8610F
:1054000003221C312A20FFF7DFFD1848C0696428F9
:1054100008D900201549C8610846406AC96908448E
:105420001249486200BFD5E61349096801EB8101C2
:1054300049000160104949680A22B1FBF2F141605C
:105440000D49C96864225143C160D0E9001251433B
:105450000C4BC2685A43B2FBF1F101820649898ABA
:1054600081820549498A418270470000D8020020A4
:105470007802002000C027401803002032010020DD
:10548000C4F35515A0860100FE48407A401CFD4932
:1054900048720846407A0A2803DD0120087000207F
:1054A000487270477CB5044601208DF80000F5482D
:1054B000807840F080008DF8010020128DF8020005
:1054C000E0B28DF803000421684600F077FC054641
:1054D000E8B28DF8040028128DF805000621684610
:1054E000FDF73EFD7CBD03468B4203DB934201DCAE
:1054F000012070470020FCE710B50446E248007820
:10550000072879D006DC78D2DFE800F0133D3E7C36
:105510008BCBF1000B2871D006DC08286FD009284E
:105520006ED00A2869D142E164286AD06528F9D191
:105530007EE1D4480078012821D1012C12D102202B
:10554000D14908700020D14908800120CD49487018
:10555000CF48CE4909884454CC480088401CCB49E8
:1055600008800FE00020C74908705021C84800F0AB
:105570009CFC0020C5490880C349087002E0002057
:10558000C149087069E168E1032C03D0062C01D001
:10559000102C0ED1BB488470BD48BC4909884454C6
:1055A000BA480088401CB94908800320B6490870F1
:1055B00021E0782C01D0792C0ED1B2488470B44807
:1055C000B24909884454B1480088401CAF4908805A
:1055D0006420AD4908700EE00020AA49087001203F
:1055E000FFF760FF5021AA4800F05FFC0020A749A8
:1055F0000880A549087030E1A9E023E1EBE0B5E0BF
:10560000C6E00FE19F484471A148A049098844546D
:105610009E480088401C9D49088004209A490870D3
:105620001BE1984804710146888844F2FF024FF458
:105630008041FFF758FFD0B9924988884DF60D7226
:105640004FF45F41FFF74FFF88B98E49888844F6D1
:105650007F624FF49C41FFF746FF40B98949888833
:105660004EF2B7024EF28001FFF73DFF60B188486D
:1056700086490988445485480088401C834908802D
:105680000520814908700BE00220FFF70BFF502135
:105690007F4800F00AFC00207C4908807A490870A5
:1056A000DBE07848807803280ED17648C4727848C9
:1056B00076490988445475480088401C734908801D
:1056C00006207149087032E06E48807806280FD1B4
:1056D0006C4844746E486D49098844546B4800888E
:1056E000401C6A4908800720674908701FE01FE0D6
:1056F0006448807810280ED1624844736448634936
:105700000988445461480088401C6049088008208A
:105710005D4908700BE000205A49087050215C4830
:1057200000F0C3FB0020594908805749087094E0F5
:10573000544884725648554909884454534800884F
:10574000401C5249088064204F49087085E04D484C
:1057500004744F484D49098844544C480088401C03
:105760004A49088064204849087076E04548047337
:10577000474846490988445444480088401C4349E6
:10578000088000204349088009203F49087064E0F0
:105790003C4884733E483D49098844543B4800884E
:1057A000401C3A4908800A203749087055E03548BE
:1057B00012303849098800EB4100447034483349BD
:1057C0000988445431480088401C304908800B2027
:1057D0002D49087041E02B4812302E49098800F805
:1057E00011402B4829490988445428480088401C06
:1057F0002649088027480088401C264908802348FD
:105800000088C01F1F498989491E884206DB642021
:105810001D49087000201B49488702E00A201A49E8
:1058200008701AE01748847165201749087014E061
:105830001448C471012013490872002008701249ED
:1058400008700AE05021124800F02FFB00200D499B
:10585000087208700C49087000BF00BF10BD2DE928
:10586000F041002600271E210B4800F01EFB0020FF
:105870000A4908800348007A01286FD1034801884B
:1058800003480DE05803002072010020640100204D
:10589000EA030020740100203A0400206601002081
:1058A00000F08CFAF6490880F648C08809888842DA
:1058B00076D1F4484078F4490870F248807848700E
:1058C000F048808800128870EE480079C870ED4872
:1058D000808800F47F46B6F5804F08D1EB4DEC4C44
:1058E000E8488088A0F58040E649C88728E0B6F5FA
:1058F0005F4F07D1E74CE3488088A0F55F40E1495E
:10590000C8871DE0B6F59C4F08D1E34DE34CDD4858
:105910008088A0F59C40DB49C88711E0B6F5604F50
:105920000BD1DF4DDF4CD748808800F5FC50D549BE
:10593000C887DDA000F048FE02E00020BDE8F0814D
:10594000D048807803282CD1CE48807ACE4A107176
:105950000520D74A1080002100201CE087E0C94ABA
:10596000D28F024405EB420253784A1DDFF818C378
:105970000CF80230C34AD28F024415F812308A1D47
:105980000CF80230CA4A1288921CC94B1A808A1C31
:10599000D1B2421CD0B2BB4A52898242DFDC41E024
:1059A00062E0B8488078062815D1B648008A00120F
:1059B000B5490871B348007C48710620BC4908808D
:1059C000B048008AAF49C98F24F811000120AD49C1
:1059D00081F83C0026E0AB488078102820D1A94807
:1059E00080890012A8490871A648007B48710620EA
:1059F000AF49088000200AE0A249123131F81010A6
:105A0000A04AD28F024424F81210411CC8B29D490A
:105A1000897B8142F0DC01209A4981F83C0001E059
:105A200000208BE7A3480188A34800F0C7F9074688
:105A30009F4802880088401C9D4B188092488754DC
:105A40003912184602880088401C18808E488154FC
:105A50000120FEF76EFF964801788B48FDF780FA2B
:105A60000520FEF75EFF02E00520FFF71BFD00208A
:105A700084490872012061E72DE9F04FA7B020A802
:105A8000FDF77EFF00260027B0468C480068070C13
:105A90008A4800881FFA80F810A8FFF7C5FC0FA8F5
:105AA000FDF7FAFB0F9800F0E0FB0FFA80F984484D
:105AB000B0F802A0B0F808B0C468008A0E90804820
:105AC00045690CA8FDF718FC0C9800F0CEFB80B2DD
:105AD0000D902598A0F5FA606C49487024980870DC
