:020000040800F2
:10000000E80B002045010008750100087701000891
:100010007B0100087F010008830100080000000048
:100020000000000000000000000000008701000840
:1000300089010008000000008B0100088D01000804
:100040005F0100085F0100085F0100089F010008D0
:100050005F0100085F0100085F0100085F01000800
:100060005F0100085F0100085F0100085F010008F0
:100070005F0100085F0100085F0100085F010008E0
:100080005F0100085F0100085F0100085F010008D0
:100090005F0100085F0100085F0100085F010008C0
:1000A0005F0100085F0100085F01000825020008E9
:1000B000BD0200085F0100085F0100085F01000841
:1000C0005F0100085F0100085F0100085F01000890
:1000D0005F010008BB010008E90100085F0100089A
:1000E0005F0100085F0100085F0100085F01000870
:1000F0005F0100085F0100085F0100085F01000860
:100100005F0100085F0100085F0100085F0100084F
:100110005F0100085F0100085F0100085F0100083F
:100120005F0100085F0100085F0100085F0100082F
:10013000DFF80CD005F0BEFE00480047690100085A
:10014000E80B00200648804706480047FEE7FEE728
:10015000FEE7FEE7FEE7FEE7FEE7FEE7FEE7FEE777
:10016000B72D00083101000803F046FD01E004F05E
:1001700002F8FCE7704700BFFEE700BFFEE700BFE4
:10018000FEE700BFFEE77047704770478148006890
:1001900020B180480068401E7E490860704710B555
:1001A000012001F06DFC38B1012001F079FC012043
:1001B0007949087001F036FC10BD10B540F22551A8
:1001C000764802F045FD70B140F22551734802F0C7
:1001D00069FD7248001D0088C4B2204604F01FFF6C
:1001E00000206F49487210BD10B540F225516D488E
:1001F00002F02EFD90B140F225516A4802F052FD06
:100200006848001D0088C4B2674841884088401C87
:10021000654A508002F11800445402E0002062490F
:10022000488010BD10B500240221604802F03BFB5D
:10023000002842D002215D4802F046FB5C4800786D
:1002400040B901205A490870584802F00DFB59493D
:10025000088032E05648007801282ED10020544909
:100260000870524802F000FB53490880514800884A
:100270000988884208DA504909884E4A1288881A43
:1002800005F0C7FC044612E04A4800884A4909883C
:1002900088420BDD474909884FF6FF72511A464ADA
:1002A0001288881805F0B5FC044600E000242146B9
:1002B000424805F001FC4249086010BD10B501211B
:1002C000880702F0F0FA002862D03E480088401CFF
:1002D0003C49088008460088032807DB04F062FEDA
:1002E0000020384908800120374908803548408877
:1002F000401C3449488008464088152804DB00200B
:1003000048800120304948802E488088401C2D4973
:10031000888008468088B0F5FA7F04DD0020888058
:100320000120294988802748C088401C2549C88069
:100330000846C08840F2EF21884205DB00202149B1
:10034000C88001202049C8801E480089401C1D49E2
:10035000088108460089B0F57A7F04DD0020088115
:1003600001201949088117484089401C15494881D6
:100370000846408940F6B931884205DB0020114922
:1003800048810120104948810121880702F09CFA28
:1003900010BD0000F80000209C0000200038014043
:1003A0005C0300200044004060020020002C01405B
:1003B000340000203600002038000020002474495A
:1003C00030000020780100208401002031490143E1
:1003D000314A1160704770B5002100230F22C478A4
:1003E00004B32D4C246804F4E064C4F5E064210AED
:1003F000C1F10403CA40447804FA03F1847814403C
:1004000021430901254C0678A155047804F01F0505
:100410000124AC4005786D11AD0005F1E025C5F86B
:10042000004109E0047804F01F050124AC401C4D94
:100430000678761145F8264070BD1A4A0A400243F4
:10044000154B1B1F1A60704739B1134A121D1268F1
:100450000243114B1B1D1A6006E00F4A121D126861
:1004600082430D4B1B1D1A607047042808D14FF0C2
:10047000E021096941F004014FF0E022116107E039
:100480004FF0E021096921F004014FF0E0221161F1
:10049000704700000000FA050CED00E000E400E009
:1004A00080E100E080FFFF1F10B50446FA48844257
:1004B00008D10121401501F00FFA0021601501F06B
:1004C0000BFA17E0F548844208D10121001501F02C
:1004D00003FA0021201501F0FFF90BE0F0488442F7
:1004E00008D10121C80301F0F7F900214FF40040C1
:1004F00001F0F2F910BD30B502460020002350682B
:10050000E84C20400D790C6844EA052420435060F3
:100510009068E54C2040D1E902542C434D7944EADF
:10052000450420439060D06A20F470000C7C641E67
:10053000E4B2234340EA0350D06230BD00210160A1
:10054000017141718160C16001210174704721B165
:10055000826842F00102826003E0826822F00102B8
:100560008260704721B1826842F48072826003E049
:10057000826822F480728260704710B50023CBB28B
:100580001AB144681C43446002E044689C434460E0
:1005900010BD816841F0080181607047014600206C
:1005A0008A6802F008020AB1012000E000207047CA
:1005B000816841F0040181607047014600208A682B
:1005C00002F004020AB1012000E00020704721B1CE
:1005D000826842F4A002826003E0826822F4A002F2
:1005E00082607047014600208A6802F480020AB1E6
:1005F000012000E00020704710B50A4600210023CA
:10060000416821F46041531E41EA4331416010BD0D
:1006100021B1426842F40062426003E0426822F481
:10062000006242607047F0B504460D46002000218C
:10063000092D11DDE068A5F10A0606EB460707263D
:1006400006FA07F18843A5F10A0606EB460603FA07
:1006500006F10843E0600CE0206905EB450707263A
:1006600006FA07F1884305EB450603FA06F108434D
:100670002061072A0FDA606B561E06EB86071F26DD
:1006800006FA07F18843561E06EB860605FA06F1C0
:100690000843606322E00D2A0FDA206BD61F06EBB9
:1006A00086071F2606FA07F18843D61F06EB860643
:1006B00005FA06F10843206310E0E06AA2F10D0696
:1006C00006EB86071F2606FA07F18843A2F10D06FE
:1006D00006EB860605FA06F10843E062F0BD21B19B
:1006E000826842F48012826003E0826822F4801201
:1006F000826070470146C86C80B2704766484C30D3
:100700000068704721B1426842F48062426003E0B1
:10071000426822F480624260704721B1426842F42C
:100720008052426003E0426822F480524260704787
:100730000A460021816821F4E0411143816070473D
:1007400021B1826842F40042826003E0826822F4B0
:1007500000428260704721B1826842F402128260D6
:1007600003E0826822F40212826070470146002092
:100770008A6802F400120AB1012000E000207047EC
:10078000F0B504461546002000220026092911DD97
:10079000E068A1F10A0707EB470C072707FA0CF2FC
:1007A0009043A1F10A0707EB470703FA07F210434A
:1007B000E0600CE0206901EB410C072707FA0CF21E
:1007C000904301EB410703FA07F210432061A06B4D
:1007D000C0F30156EF1C06F1010CA7EB0C0707EB69
:1007E000870C1F2707FA0CF29043EF1C06F1010C4F
:1007F000A7EB0C0707EB870701FA07F21043A0638A
:10080000F0BD10B50A4600210023816B21F4401190
:10081000531E41EA0351816310BD08B500230093C4
:100820000090009B0B440093009B1A6008BD08B524
:10083000024600200090009201F12800009B18441D
:1008400000900098006880B208BD0A460021416807
:10085000164B1940114341607047416282627047F4
:100860000A460021416821F01F0111434160704791
:1008700040B109490831096841F40001064A0832CB
:10088000116007E004490831096821F40001024AB7
:100890000832116070470000002401400028014028
:1008A000003C0140FFFEF0FFFDF7F1FFFFFD3FFFC1
:1008B0000246002013680B400BB1012000E000202D
:1008C0007047CA430260704770B50246002000239B
:1008D00000240B125568CEB205EA060415681D40C7
:1008E00015B10CB1012000E0002070BD00220A12F9
:1008F000D34303607047000010B5012001F006F8F3
:10090000002001F003F810BD2A490860704729490A
:10091000091F086070472749843108607047014605
:100920000020254A10884FF67F4210400843224A93
:1009300010807047014600201F4A10884FF68072D1
:10094000104008431C4A1080704708B500220092EE
:10095000194A2C3A0092009A02440092009A1160BF
:1009600008BD08B501460020009013482C380090BF
:100970000098084400900098008808BD0D489C30FD
:100980000068C0B270470C480830008840F0010091
:1009900009490831088070470648A0300068C0B295
:1009A000704705480830008840F0020002490831CD
:1009B0000880704704860D422C6C004010B5012160
:1009C000480700F096FF00214FF0005000F091FF23
:1009D00010BD30B5002200235A4C226840F6FE7448
:1009E0008440A243D1E900452C438D682C43CD6857
:1009F00044EA050303FA00F42243524C226030BD5E
:100A00000021016041608160C160704739B14D4A89
:100A10001268012383401A434A4B1A6006E0494A90
:100A20001268012383409A43464B1A60704741B1D4
:100A3000444A12684FF4805383401A43414B1A6072
:100A400007E0404A12684FF4805383409A433D4B7D
:100A50001A60704710B551B13A4A121D1268040964
:100A60000123A3401A43374B1B1D1A6009E0354A86
:100A7000121D126804090123A3409A43314B1B1D28
:100A80001A6010BD40B12F49091D096841F00301EA
:100A90002C4A121D116007E02A49091D096821F03E
:100AA0000301284A121D1160704710B53AB1254B59
:100AB0001B6801FA00F42343224C236006E0214B1B
:100AC0001B6801FA00F4A3431E4C236010BD08B557
:100AD000002200921B4A009200F10802009B1A4477
:100AE0000092009A116008BD08B500220092154AD4
:100AF000009200F11402009B1A440092009A1160C7
:100B000008BD30B500240023082802D142EA0124A0
:100B100001E042EA01440B4B00F120052B441C602C
:100B200030BD08B5014600200090064800902C20FA
:100B300000EB9100009A104400900098006880B289
:100B400008BD00000074004001684FF6FE721140BD
:100B500001600021016041608160C1608D4988426F
:100B600008D18C490839496841F00F01894A083A8F
:100B700051608AE087491431884208D18549083993
:100B8000496841F0F001834A083A51607DE08149AB
:100B90002831884208D17F490839496841F4706199
:100BA0007C4A083A516070E07A493C31884208D169
:100BB00078490839496841F47041764A083A5160E9
:100BC00063E074495031884208D172490839496854
:100BD00041F470216F4A083A516056E06D49643122
:100BE000884208D16B490839496841F47001694A63
:100BF000083A516049E067497831884208D165492F
:100C00000839496841F07061624A083A51603CE035
:100C10006149884206D1011F096841F00F01021F96
:100C2000116032E05C491431884208D15A49091FE9
:100C3000096841F0F001584A121F116025E0564939
:100C40002831884208D15449091F096841F470616C
:100C5000514A121F116018E04F493C31884208D1B7
:100C60004D49091F096841F470414B4A121F116038
:100C70000BE049495031884207D14749091F0968AB
:100C800041F47021444A121F1160704710B50022D0
:100C9000026847F6F0739A430C6A8B6823430C6929
:100CA00023434C6923438C692343CC6923434C6A17
:100CB00023438C6A23431A430260CB6843600B686A
:100CC00083604B68C36010BD00210160416081609A
:100CD000C160016141618161C16101624162816202
:100CE000704721B1026842F00102026004E002682C
:100CF0004FF6FE731A40026070471AB103680B4347
:100D0000036002E003688B430360704741607047F3
:100D10000146486880B2704701460020002201F079
:100D200080531BB11C4B083B1A6802E0194B083B6F
:100D30001A6802EA01030BB1012000E000207047AD
:100D400000F0805119B11449091F086002E01149EF
:100D500008394860704701460020002201F08053A6
:100D60001BB10D4B083B1A6802E00A4B083B1A689E
:100D700002EA01030BB1012000E00020704700F0FF
:100D8000805119B10449091F086002E0014908397E
:100D900048607047080002400804024010B504464D
:100DA000CC48844208D10121042000F095FD0021A7
:100DB000042000F091FD46E0C748844208D101219B
:100DC000082000F089FD0021082000F085FD3AE0B0
:100DD000C248844208D10121102000F07DFD00218D
:100DE000102000F079FD2EE0BD48844208D1012199
:100DF000202000F071FD0021202000F06DFD22E098
:100E0000B848844208D10121402000F065FD00214E
:100E1000402000F061FD16E0B348844208D1012172
:100E2000802000F059FD0021802000F055FD0AE0EF
:100E3000AE48844207D10121801500F04DFD00210C
:100E4000A01500F049FD10BD10B50121084600F0C5
:100E500043FD0021012000F03FFD10BD2DE9F041D0
:100E6000024600250026002000230024002791F8D8
:100E700003C00CF00F0591F803C00CF0100CBCF18E
:100E8000000F03D091F802C04CEA050591F800C0AC
:100E9000BCF1000F31D0146800202BE04FF0010CA2
:100EA0000CFA00F3B1F800C00CEA03069E4220D110
:100EB00083004FF00F0C0CFA03F7BC4305FA03FC58
:100EC0004CEA040491F803C0BCF1280F06D14FF09E
:100ED000010C0CFA00FCC2F814C00AE091F803C03F
:100EE000BCF1480F05D14FF0010C0CFA00FCC2F820
:100EF00010C0401C0828D1D31460B1F800C0BCF168
:100F0000FF0F34DD546800202EE000F1080C4FF094
:100F1000010808FA0CF3B1F800C00CEA03069E427F
:100F200021D183004FF00F0C0CFA03F7BC4305FAF4
:100F300003FC4CEA040491F803C0BCF1280F05D16E
:100F400000F1080C08FA0CF8C2F8148091F803C0FC
:100F5000BCF1480F07D100F1080C4FF0010808FA66
:100F60000CF8C2F81080401C0828CED35460BDE8AD
:100F7000F0814FF6FF710180022181700421C17060
:100F800070470246002093680B400BB1012000E03F
:100F9000002070470146886880B2704702460020F2
:100FA000D3680B400BB1012000E0002070470146E0
:100FB000C86880B2704701617047416170470AB1EB
:100FC000016100E041617047C16070474FF48032B9
:100FD0000A43826181618261826982697047024647
:100FE0000020434B18684FF68073184040EA021007
:100FF00008433F4B186070473E49C8617047F0B5E1
:101000000A46002300240021002500F00046B6F126
:10101000004F02D1364EF16901E0354E7168C0F3E0
:10102000034583B200F44016B6F5401F08D121F005
:1010300070612F4E766826F070662D4F7E6012E04C
:1010400000F48016B6F5801F06D1032606FA05F4D3
:10105000A14341F0706106E0460D360103FA06F641
:10106000B14341F0706122B1460D360103FA06F634
:10107000314300F00046B6F1004F02D11C4EF16141
:1010800001E01B4E7160F0BD30B500228B071C0FD4
:101090000F2303FA04F2164B08338C1053F8243054
:1010A0009343134C08348D1044F8253023468C109C
:1010B00053F824308C07240F00FA04F423430C4C1B
:1010C00008348D1044F8253030BD0A49DC31086001
:1010D0007047000000080140000C01400010014072
:1010E0000014014000180140001C01400020014094
:1010F000000001400000204210B50446F748844239
:1011000009D10121480500F0F4FB00214FF4001043
:1011100000F0EFFB08E00121880500F0EAFB002168
:101120004FF4800000F0E5FB10BD2DE9F04385B0E1
:1011300004460D460026B1460427DFF8A483A6889E
:101140004FF6C0700640684600F03FFBDDF80880AF
:10115000E448B8FBF0F01FFA80F946EA0906A680D9
:1011600020884FF6FE71084020800026DE4928685E
:1011700088420CD828684000B8FBF0F087B2042FF2
:1011800000DA04273E4309F10100208427E0E888C3
:101190004BF6FF71884206D1286800EB4000B8FB8F
:1011A000F0F087B209E0286800EBC00101EB001005
:1011B000B8FBF0F087B247F48047C7F30B0008B9DB
:1011C00047F0010747F4004006434FF4967009FBCF
:1011D00000F04FF47A7190FBF1F0401C2084A6835C
:1011E000208840F00100208026884FF6F530064028
:1011F000A8886989084306432680A8892989084365
:10120000208105B0BDE8F08341F288310160002102
:1012100081804BF6FF71C1800021018141814FF433
:1012200080418181704721B1028842F00102028031
:1012300004E002884FF6FE731A400280704721B125
:10124000828842F40062828004E082884FF2FF7359
:101250001A408280704721B1828842F48052828095
:1012600004E082884EF6FF731A408280704721B1F5
:10127000028842F48072028004E002884FF6FF6325
:101280001A400280704721B1028842F40072028045
:1012900004E002884FF6FF531A400280704721B1E4
:1012A000028842F48062028004E002884FF6FF3335
:1012B0001A40028070470A46002181894FF6017367
:1012C000194002F0FE0319438181704721B18289E0
:1012D00042F00102828104E082894FF6FE731A40D7
:1012E0008281704721B1028842F04002028004E00E
:1012F00002884FF6BF731A40028070471AB1838884
:101300000B43838002E083888B4383807047018294
:1013100070470146088AC0B2704712B141F001011E
:1013200002E04FF6FE7319400182704708B502468D
:1013300000200090009200980844009000980088D7
:1013400008BD21B1028842F40042028003E0028815
:10135000C2F30E0202807047B1F5006F04D102881B
:1013600042F40062028004E002884FF2FF731A40E8
:1013700002807047B1F5005F04D1028842F4005248
:10138000028004E002884DF6FF731A400280704725
:1013900021B1028842F48052028004E002884EF6B5
:1013A000FF731A4002807047B1F5006F04D10288C4
:1013B00042F40062028004E002884FF2FF731A4098
:1013C0000280704721B1028842F02002028004E0CE
:1013D00002884FF6DF731A40028070470146088B7F
:1013E0000012704721B1028842F01002028004E02E
:1013F00002884FF6EF731A400280704721B90288C5
:1014000042F08002028004E002884FF67F731A40A7
:1014100002807047B1F5804F05D0828B4BF6FF7389
:101420001A40828303E0828B42F4804282837047B9
:1014300070B502460024002500230020958A138BF6
:101440001B0445EA030626F07F4404EA01068E42A7
:1014500001D1012000E0002070BD10B50146002040
:10146000002300228B8A0A8B120443EA020424F030
:101470007F4010BD0CB5024600200023019300936D
:1014800000920B0F019321F07F41019B1BB1009B48
:101490001433009303E0090C009B18330093009B66
:1014A0001B680B400BB1012000E000200CBD0022A6
:1014B00021F07F42D3438382704730B5024600203B
:1014C0000023948801F0E06504EA154321F07F4190
:1014D000948A0C4054B14BB1012008E00054004004
:1014E00000127A0040420F00A0860100002030BDAB
:1014F000002221F07F42D3438382704710B501213F
:10150000080700F0F6F900214FF0805000F0F1F9E3
:1015100010BD2A4908627047284908617047014692
:101520000020274A106820F0E00008431060704750
:101530002249A0310860704710B502460020204BB8
:10154000186820F00300104318601E4B1B6843F01E
:1015500004031C4C2360012901D130BF00E020BFEF
:10156000184B1B6823F00403164C236010BD14486D
:10157000006840F00400124908600846006840F026
:10158000020008600F48006840F004000D49086040
:1015900000BF00BF30BF704701460020084A5268B4
:1015A0000A400AB1012000E00020704704490968A0
:1015B00041EA8001024A11607047000000000E42BB
:1015C0000070004010ED00E0DF48006840F00100CE
:1015D000DD49086008464068DC490840DA4948604F
:1015E00008460068DA490840D7490860084600689C
:1015F00020F4802008600846406820F4FE0048601F
:101600004FF41F0088607047CF49096821F480318A
:10161000CD4A11601146096821F480211160B0F5AE
:10162000803F03D0B0F5802F0ED106E0C64909688F
:1016300041F48031C44A116007E0C349096841F4AC
:10164000A021C14A116000E000BF00BF704710B583
:1016500001460022002300204A11012A02D1BA4C7F
:10166000236806E0022A02D1B74C236A01E0B64C97
:10167000636A01F01F02012494401C400CB1012058
:1016800000E0002010BD38B50020009000240025A7
:1016900000BF3120FFF7DBFF05460098401C00909B
:1016A0000098B0F5A06F01D0002DF2D03120FFF7E7
:1016B000CEFF08B1012400E00024204638BD0146D9
:1016C0000020A14A106820F0F80040EAC100106034
:1016D0007047A04908607047024600209A4B58683E
:1016E00020F47C1042EA01031843974B586070477E
:1016F00098490866704701460020934A506820F0D8
:1017000003000843506070478F48406800F00C00A9
:101710007047014600208C4A506820F0F0000843D2
:101720005060704701460020874A506820F4E0600E
:1017300008435060704701460020834A506820F4F7
:10174000605040EAC1005060704729B17E4A527A29
:1017500002437D4B5A7204E07B4A527A82437A4BB1
:101760005A7270477B49D8310860704701460020A3
:10177000754A506820F4404008435060704700218B
:10178000714A20321170704A82F82010012802D06C
:1017900004280AD104E001216B4A2032117005E0CF
:1017A0000521694A2032117000E000BF00BF704778
:1017B0006949086070476449096A0143624A1162D5
:1017C0007047654944390860704730B500210022F0
:1017D000002400235C4D6D6805F00C0121B1042943
:1017E00005D0082923D105E05C4D056022E05B4D62
:1017F00005601FE0544D6D6805F47012524D6D6820
:1018000005F48034022505EB92421CB9544D554332
:1018100005600BE04C4D6D6805F400351DB1504D71
:101820005543056002E04D4D5543056002E04B4DC8
:10183000056000BF00BF444D6D6805F0F001090967
:10184000484D6B5C0568DD4045603F4D6D6805F4B3
:10185000E061090A434D6B5C4568DD4085603A4DA7
:101860006D6805F46051C90A3E4D6B5C4568DD400A
:10187000C560354D6D6805F44041890B3A4D6B5C90
:10188000C568B5FBF3F5056130BD29B12E4A526933
:1018900002432D4B5A6104E02B4A526982432A4B82
:1018A0005A61704729B1284A92690243264B9A61CE
:1018B00004E0254A92698243234B9A61704729B11B
:1018C000214AD2690243204BDA6104E01E4AD26900
:1018D00082431D4BDA61704729B11B4AD26802432B
:1018E000194BDA6004E0184AD2688243164BDA607A
:1018F000704729B1144A12690243134B1A6104E07C
:10190000114A12698243104B1A61704712494039DB
:10191000086070470F49C86470470B49C871704729
:101920000948406A40F080700749486270470146A4
:101930000020054A92680A400AB1012000E0002018
:101940007047014988727047001002400000FFF89C
:10195000FFFFF6FE000042428004424200127A007D
:1019600000093D003A0000204A00002029B1504AF9
:10197000128802434E4B1A8004E04D4A128882437B
:101980004B4B1A8070474A48001D008840F01000F9
:101990004749091D088070474548001D00884FF6DB
:1019A000EF7108404249091D0880704700214048F6
:1019B0001C300188001F008841EA0040704700B5D4
:1019C0000246FFF7E0FF100C394918310880091D65
:1019D0000A80FFF7E1FF00BD00B50246FFF7D3FF25
:1019E000C2F30340324908310880091D0A80FFF71D
:1019F000D3FF00BD00B50246FFF7C5FF100C2C4910
:101A000020310880091D0A80FFF7C6FF00BD0020B5
:101A10002749103109880907080B2549143109881D
:101A20000843704700BF2248001D008800F02000D6
:101A30000028F8D070471E48001D00884FF6F77147
:101A400008401B49091D088000BF1948001D008877
:101A500000F008000028F8D0704701460020144A22
:101A6000121D12880A400AB1012000E000207047D0
:101A70000F49091D098881430D4A121D11807047C5
:101A8000014600200A4A121D12880A40D0B2084AB4
:101A900012880A4012B108B1012000E0002070470E
:101AA0000349091D09888143014A121D11807047AD
:101AB0000028004010B50446FE48844208D10121A8
:101AC000C014FFF709FF0021E014FFF705FFC4E091
:101AD000B4F1804F08D101210846FFF70AFF002129
:101AE0000120FFF706FFB8E0F348844208D1012146
:101AF0000220FFF7FEFE00210220FFF7FAFEACE015
:101B0000EE48844208D101210420FFF7F2FE0021B3
:101B10000420FFF7EEFEA0E0E948844208D101214D
:101B20000820FFF7E6FE00210820FFF7E2FE94E020
:101B3000E448844208D101211020FFF7DAFE002199
:101B40001020FFF7D6FE88E0DF48844208D101214B
:101B50002020FFF7CEFE00212020FFF7CAFE7CE008
:101B6000DA48844208D101214014FFF7B5FE002174
:101B70006014FFF7B1FE70E0D548844209D101211D
:101B8000C804FFF7A9FE00214FF40020FFF7A4FED0
:101B900063E0D048844209D101210805FFF79CFE8B
:101BA00000214FF48010FFF797FE56E0CA488442A8
:101BB00009D101214805FFF78FFE00214FF40010E5
:101BC000FFF78AFE49E0C548844208D10121402040
:101BD000FFF78FFE00214020FFF78BFE3DE0C0485D
:101BE000844208D101218020FFF783FE002180205C
:101BF000FFF77FFE31E0BB48844208D10121801508
:101C0000FFF777FE0021A015FFF773FE25E0B64829
:101C1000844209D101210804FFF75EFE00214FF440
:101C20008030FFF759FE18E0B048844209D1012105
:101C30004804FFF751FE00214FF40030FFF74CFE3F
:101C40000BE0AB48844208D101218804FFF744FE31
:101C500000214FF48020FFF73FFE10BD00220288D4
:101C6000944B98420ED0994B98420BD0B0F1804FD4
:101C700008D0914B984205D0904B984202D0904B9F
:101C8000984204D14FF68F731A404B881A438D4BFC
:101C9000984207D08C4B984204D04FF6FF431A402D
:101CA000CB881A4302808B8883850B880385814B00
:101CB00098420BD0854B984208D08B4B984205D068
:101CC0008A4B984202D08A4B984201D10B7A038604
:101CD00001238382704770B5002400220023058C05
:101CE0004FF6FE7635400584028C8388048B4FF6D0
:101CF0008F752C40B51E2C400D882C43751E2A4034
:101D00000D892A434D882A436A4DA8420BD06F4D56
:101D1000A84208D0744DA84205D0744DA84202D004
:101D2000734DA84213D14FF6F7752A404D892A43C7
:101D30004FF6FB752A408D882A434FF6FF652B40EE
:101D40004FF6FF552B408D892B43CD892B43838044
:101D50000483CD888586028470BD70B5002400227E
:101D60000023058C4FF6EF7635400584028C83887E
:101D7000048B48F6FF752C404FF6FF452C400D882C
:101D80004FF6FF7606EA05252C434FF6DF752A400D
:101D90000D8906EA05152A434D8806EA05152A43EA
:101DA000444DA84202D0494DA8421DD14FF67F753F
:101DB0002A404D894FF6FF7606EA05152A434FF66D
:101DC000BF752A408D8806EA05152A434FF6FF3570
:101DD0002B404FF2FF752B408D8906EA85052B437A
:101DE000CD8906EA85052B4383800483CD8805874A
:101DF000028470BD70B5002400220023058C4FF6CC
:101E0000FF6635400584028C8388848B4FF68F757E
:101E10002C404FF6FC752C400D882C434FF6FF5597
:101E20002A400D894FF6FF7606EA05252A434D889C
:101E300006EA05252A431F4DA84202D0234DA84299
:101E40001DD14FF2FF752A404D894FF6FF7606EA05
:101E500005252A434FF6FF352A408D8806EA0525D9
:101E60002A434EF6FF752B404DF6FF752B408D89AA
:101E700006EA05152B43CD8906EA05152B43838019
:101E80008483CD888587028470BD70B500220023CD
:101E90000024058C4EF6FF7635400584038C84883B
:101EA000828B48F6FF752A404FF6FF452A400D8881
:101EB00020E00000002C0140000400400008004029
:101EC000000C0040001000400014004000340140AD
:101ED000004C0140005001400054014000180040F7
:101EE000001C004000200040004001400044014030
:101EF000004801404FF6FF7606EA05252A434DF6D5
:101F0000FF752B400D8906EA05352B434D8806EAFF
:101F100005352B43FA4DA84202D0FA4DA84208D10C
:101F20004BF6FF752C408D894FF6FF7606EA851536
:101F30002C4384808283CD88A0F84050038470BDF8
:101F4000828B4FF2FF331A408283828B4FF6FF73EE
:101F500003EA01231A4382837047F0B50C46154605
:101F6000002200210026078C4EF6FF7C07EA0C07B2
:101F70000784828B018C4FF6FF7707EA043640F620
:101F8000FF473A404FF6FF7707EA05273A434FF6F7
:101F9000FF7707EA03373A43D94FB8420ED0D94FFB
:101FA000B8420BD0B0F1804F08D0D74FB84205D01F
:101FB000D64FB84202D0D64FB84206D14DF6FF7781
:101FC000394046F48057394305E047F6FF5739401A
:101FD00044F48057394382830184F0BD828B4FF6ED
:101FE000F3731A408283828B0A4382837047F0B571
:101FF0000C461546002200210026078C4FF6FF6C88
:1020000007EA0C070784828B018C4FF6FF7707EAFB
:1020100004264FF60C773A404FF6FF7707EA03178E
:102020002F433A43B64FB8420ED0B64FB8420BD00A
:10203000B0F1804F08D0B44FB84205D0B34FB8428A
:1020400002D0B34FB84206D14FF6FF57394046F49D
:102050008077394305E04FF2FF57394044F48077E9
:10206000394382830184F0BD028B4FF2FF331A4063
:102070000283028B4FF6FF7303EA01231A430283A4
:102080007047F0B50C461546002200210026078C4B
:102090004FF6EF7C07EA0C070784028B018C4FF6A2
:1020A000FF7707EA041640F6FF473A404FF6FF77FE
:1020B00007EA03373A434FF6FF7707EA05273A4323
:1020C0008F4FB8420ED08F4FB8420BD0B0F1804F37
:1020D00008D08D4FB84205D08C4FB84202D08C4FFB
:1020E000B84206D14FF6DF77394046F01007394342
:1020F00005E04FF65F77394044F01007394302831B
:102100000184F0BD028B4FF6F3731A400283028BF9
:102110000A4302837047F0B50C46154600220021A1
:10212000068C4FF6FE773E400684028B018C4FF6FC
:102130000C7632407E1C06EA03162E433243704E64
:10214000B0420ED06F4EB0420BD0B0F1804F08D0ED
:102150006D4EB04205D06D4EB04202D06C4EB042D2
:1021600006D14FF6FD76314044F00106314305E0DB
:102170004FF6F576314044F0010631430283018485
:10218000F0BD70B505460C465D4885420ED05D48F1
:1021900085420BD0B5F1804F08D05B48854205D011
:1021A0005A48854202D05A48854200D100E000BF1B
:1021B000208850B92389A28861882846FFF7ABFFA1
:1021C000E1882846FFF79EFF25E0208804280AD1F1
:1021D0002389A28861882846FFF753FFE1882846B3
:1021E000FFF742FF17E0208808280AD12389A28838
:1021F00061882846FFF7FBFEE1882846FFF7EEFEE0
:1022000009E02389A28861882846FFF7A6FEE188B5
:102210002846FFF795FE70BD2DE9F04105460C46B6
:1022200000260127608808B9022600E00026A08861
:10223000012801D1022700E001272088A0B92389C5
:10224000A28861882846FFF766FFE1882846FFF7E5
:1022500059FF23893A4631462846FFF712FFE188A5
:102260002846FFF701FF13E02389A28861882846EA
:10227000FFF707FFE1882846FFF7F6FE23893A4675
:1022800031462846FFF747FFE1882846FFF73AFF27
:10229000BDE8F0810A884B881A438B881A43CB88A3
:1022A0001A430B891A434B891A438B891A43A0F8A6
:1022B000442070474FF6FF71818000210180C1806A
:1022C0004180017270470021018041808180C1807E
:1022D000018141818181C18170470021018041805C
:1022E000012181800021C18001817047002101808E
:1022F00041808180C18001814181818170470000DE
:10230000002C01400034014000040040000800405F
:10231000000C004021B1028842F00102028004E07A
:1023200002884FF6FE731A400280704731B1B0F850
:10233000442042F40042A0F8442005E0B0F84420D4
:10234000C2F30E02A0F8442070471AB183890B43F0
:10235000838102E083898B43838170478182704748
:1023600041EA0203A0F8483070471AB183890B4351
:10237000838102E083898B438381704701894FF613
:10238000F8721140018170470A46002101894FF619
:102390008F73194011430181704730B504460D46D3
:1023A00029462046FFF7F0FF208940F007002081F2
:1023B00030BD2DE9F04104460D4616461F46602DFE
:1023C00006D13B46012231462046FFF75AFE05E082
:1023D0003B46012231462046FFF79DFE2946204616
:1023E000FFF7D2FF208940F007002081BDE8F0818F
:1023F00030B50C4600210189C9B24FF6FF7505EAD8
:102400000325154325432943018130BD2DE9F041C2
:1024100005460E4617469846002443463A4631463E
:102420002846FFF7E5FF2C894FF6F870044044F08A
:1024300007044FF68F70044044F070042C81BDE80F
:10244000F081F0B504460D4616461F463B4632461F
:1024500029462046FFF7CCFF208940F480402081A8
:10246000F0BD0185828270470A46002101884FF63F
:102470008F731940114301807047F0B50C46154623
:102480001E460021002200230189028B038C4FF697
:10249000F877394021434FF6FC473A4040F20117A4
:1024A0003A434FF6DD773B404FF6FF7707EA0617D2
:1024B0002F433B43018102830384F0BD0A46002180
:1024C000018B4FF68F7319401143018370470A4601
:1024D0000021018B48F6FF7319404FF6FF7303EAA2
:1024E00002231943018370470A460021818B4FF66E
:1024F0008F7319401143818370470A460021818BF5
:1025000048F6FF7319404FF6FF7303EA022319439D
:102510008183704721B1028842F08002028004E08A
:1025200002884FF67F731A400280704721B182887B
:1025300042F00402828004E082884FF6FB731A4066
:102540008280704721B1828842F00802828004E0D4
:1025500082884FF6F7731A408280704721B18288D3
:1025600042F00102828004E082884FF6FE731A4036
:10257000828070470A460021018B4FF6F77319409D
:102580001143018370470A460021018B4FF2FF730C
:1025900019404FF6FF7303EA022319430183704782
:1025A0000A460021818B4FF6F7731940114381834E
:1025B00070470A460021818B4FF2FF7319404FF696
:1025C000FF7303EA02231943818370470A460021FF
:1025D000018B4FF6FB7319401143018370470A4684
:1025E0000021018B4FF6FF3319404FF6FF7303EACA
:1025F00002231943018370470A460021818B4FF65D
:10260000FB7319401143818370470A460021818B77
:102610004FF6FF3319404FF6FF7303EA02231943C5
:10262000818370470A460021018B4FF67F73194062
:102630001143018370470A460021018BC1F30E014B
:102640004FF6FF7303EA02231943018370470A46DA
:102650000021818B4FF67F731940114381837047AE
:102660000A460021818BC1F30E014FF6FF7303EA86
:1026700002231943818370470A460021018C4FF6DB
:10268000FD7319401143018470470A460021018CF3
:102690004FF6F77319401143018470470A46002131
:1026A000018C4FF6DF7319404FF6FF7303EA0213F4
:1026B0001943018470470A460021018C4FF67F734D
:1026C00019404FF6FF7303EA021319430184704760
:1026D0000A460021018C4FF6FF5319404FF6FF7355
:1026E00003EA02231943018470470A460021018C42
:1026F0004FF2FF7319404FF6FF7303EA02231943A9
:10270000018470470A460021018C4DF6FF73194081
:102710004FF6FF7303EA023319430184704730B563
:10272000002301248C40A3B2048C9C430484048CB9
:1027300002FA01F5ADB22C43048430BD30B500235C
:1027400004248C40A3B2048C9C430484048C02FABD
:1027500001F5ADB22C43048430BD70B503460020B2
:1027600000241846183001258D40ACB21D8CA543BD
:102770001D8409B1082909D100EB6100056825F025
:10278000700505600568154305600EE00D1FC5F373
:102790004E052844056825F4E045056005684FF6B8
:1027A000FF7606EA02263543056070BD21B1028836
:1027B00042F00202028004E002884FF6FD731A40E4
:1027C0000280704721B1028842F00402028004E0D6
:1027D00002884FF6FB731A400280704721B182884D
:1027E00042F08002828004E082884FF67F731A40B4
:1027F0008280704702884FF6F7731A400280028881
:102800000A430280704782884FF68F731A40828095
:1028100082880A438280704702894FF6F8731A4013
:10282000028102890A430281704702894FF67F7351
:102830001A40028102890A430281704781847047ED
:10284000818570478186704701877047818770470F
:10285000A0F84010704702884FF6FF431A400280EC
:1028600002880A43028070470146888E70470146FD
:10287000088F70470146888F70470146B1F84000C5
:1028800070470146888C70470146088D70470246A4
:102890000020138A0B400BB1012000E0002070479C
:1028A000CA430282704730B502460020002300244C
:1028B000158A05EA0103958905EA010413B10CB1F3
:1028C000012000E0002030BDCA43028270470000B2
:1028D00010B50446FB48844209D101218803FEF764
:1028E000FBFF00214FF48040FEF7F6FF32E0F64890
:1028F000844209D101214804FEF7FBFF00214FF477
:102900000030FEF7F6FF25E0F048844209D10121AE
:102910008804FEF7EEFF00214FF48020FEF7E9FF68
:1029200018E0EB48844209D10121C804FEF7E1FF19
:1029300000214FF40020FEF7DCFF0BE0E548844265
:1029400008D101210805FEF7D4FF00214FF48010C3
:10295000FEF7CFFF10BD2DE9F04786B005460E46C5
:102960000024A24600BFA1460027B08900B100BFE5
:102970002F462C8A4CF6FF700440F08804432C82CA
:10298000AC894EF6F3100440B08831890843718950
:1029900008430443AC81AC8A4FF6FF400440B08941
:1029A0000443AC8201A8FEF710FFC648874202D15B
:1029B000DDF810A001E0DDF80CA0A88900F40040CB
:1029C00040B10AEBCA0000EB0A1031684900B0FBC5
:1029D000F1F807E00AEBCA0000EB0A103168890041
:1029E000B0FBF1F86420B8FBF0F004012009642189
:1029F00001FB1089A88900F4004040B1322000EBAF
:102A0000C900B0FBF1F000F00700044308E03220F9
:102A100000EB09106421B0FBF1F000F00F0004435B
:102A20002C8106B0BDE8F0874FF4165101600021FB
:102A30008180C18001810C21418100218181704709
:102A400010B502460020108A4FF2FF0318400B8891
:102A50004C8823438C882343CC882343184310821B
:102A600010BD0021018041808180C180704721B16B
:102A7000828942F40052828104E082894DF6FF731C
:102A80001A4082817047F0B50346002400260025D5
:102A9000002040F66A17B94200D100BF1846C1F3C2
:102AA000421401F01F06012707FA06F5012C01D197
:102AB0000C3004E0022C01D1103000E014301AB1C7
:102AC00007682F43076002E00768AF430760F0BD67
:102AD0001AB1838A0B43838202E0838A8B43838209
:102AE0007047028A4FF6F0731A400282028A0A4344
:102AF0000282704782894FF2FF731A408281828975
:102B00000A438281704721B1828942F002028281A8
:102B100004E082894FF6FD731A4082817047028A71
:102B20004FF6DF731A400282028A0A43028270471C
:102B300021B1028A42F48042028204E0028A4BF60A
:102B4000FF731A4002827047C1F308028280704707
:102B500001468888C0F308007047818941F001016F
:102B600081817047028BD2B20283028B42EA01223A
:102B700002837047028B02F47F420283028B0A4376
:102B80000283704721B1828A42F02002828204E0EF
:102B9000828A4FF6DF731A408282704721B1828A9F
:102BA00042F01002828204E0828A4FF6EF731A40EC
:102BB0008282704721B1828A42F00802828204E058
:102BC000828A4FF6F7731A408282704721B1828958
:102BD00042F40042828103E08289C2F30E028281C4
:102BE000704721B1828A42F40062828204E0828AC4
:102BF0004FF2FF731A4082827047828A4FF6FB734E
:102C00001A408282828A0A438282704721B1828A74
:102C100042F00202828204E0828A4FF6FD731A407B
:102C20008282704702460020B1F5007F00D100BFCC
:102C300013880B400BB1012000E00020704701F425
:102C40000072B2F5007F00D100BFCA430280704716
:102C500070B50246002400230025002040F66A16C5
:102C6000B14200D100BFC1F3421501F01F0301269C
:102C700006FA03F3012D02D19689334006E0022DB6
:102C800002D1168A334001E0968A33400C120126A5
:102C900006FA04F41688344013B10CB1012000E0A8
:102CA000002070BD10B50022002340F66A14A14236
:102CB00000D100BF0A1201249440A3B2DC43048077
:102CC00010BD0000003801400044004000480040B2
:102CD000004C0040005000400CB5002001900090D6
:102CE0006C48006840F480306A49086000BF694859
:102CF000006800F4003000900198401C019000989A
:102D000018B90198B0F5A06FF1D16248006800F4DD
:102D1000003010B10120009001E0002000900098E8
:102D2000012843D15C48006840F010005A4908600F
:102D30000846006820F0030008600846006840F07C
:102D4000020008605348406852494860084640689D
:102D500048600846406840F4806048600846406823
:102D600020F47C1048600846406840F4E810486051
:102D70000846006840F08070086000BF4548006861
:102D800000F000700028F9D04248406820F00300AD
:102D9000404948600846406840F00200486000BF73
:102DA0003C48406800F00C000828F9D10CBD10B573
:102DB000FFF792FF10BD10B53648006840F00100E3
:102DC0003449086008464068344908403149486041
:102DD00008460068324908402E49086008460068E5
:102DE00020F4802008600846406820F4FE00486017
:102DF0004FF41F008860FFF7DAFF4FF000602949A9
:102E0000086010BD10B5002100200022214B5B6836
:102E100003F00C0121B1042906D0082928D107E0CC
:102E2000214B224C236027E01F4B204C236023E0E2
:102E3000184B5B6803F47010164B5B6803F4803228
:102E4000022303EB904022B9194B4343174C2360F4
:102E50000DE0104B5B6803F4003323B1144B434384
:102E6000124C236003E0104B4343104C236003E0FB
:102E70000D4B0E4C236000BF00BF064B5B68C3F3D5
:102E800003130C4CE15C094B1B68CB40074C2360DF
:102E900010BD000000100240002002400000FFF8BA
:102EA000FFFFF6FE08ED00E000127A00500000205F
:102EB00000093D005400002000B585B0012144F216
:102EC0000400FEF7EFFC4FF40070ADF8100018207E
:102ED0008DF8130003208DF8120004A92B48FDF78C
:102EE000BDFF4FF48060ADF8100004208DF8130092
:102EF00004A92648FDF7B2FF4FF4165000900020B9
:102F0000ADF80400ADF80600ADF80800ADF80C000F
:102F10000C20ADF80A0069461D48FFF71CFD012290
:102F200040F225511A48FFF7AEFD01211848FFF77E
:102F30009EFD05B000BD08B54FF4A060FDF746FA50
:102F400025208DF8000001208DF8010000208DF86B
:102F5000020001208DF803006846FDF73CFA08BD29
:102F600070B505460E4600240CE0295D0848FFF7C1
:102F7000EBFD00BF0648008800F080000028F9D073
:102F8000601CC4B2B442F0DB70BD00000008014018
:102F90000038014000B585B001210420FEF782FC15
:102FA00001214804FEF78BFC0420ADF81000182026
:102FB0008DF8130003208DF8120004A92F48FDF7A7
:102FC0004DFF0820ADF8100004208DF8130004A96F
:102FD0002A48FDF743FF4FF4E13000900020ADF8A0
:102FE0000400ADF80600ADF80800ADF80C000C20A8
:102FF000ADF80A0069462248FFF7ADFC01212048E0
:10300000FFF735FD05B000BD08B54FF4A060FDF732
:10301000DDF926208DF8000004208DF80100002045
:103020008DF8020001208DF803006846FDF7D3F902
:1030300008BD70B505460E4600240CE0295D104819
:10304000FFF782FD00BF0E48008800F080000028D6
:10305000F9D0601CC4B2B442F0DB70BD70B5044658
:103060000D46E1B20648FFF76FFD00BF0448008837
:1030700000F080000028F9D0204670BD0008014013
:103080000044004000B585B001211120FEF70AFC84
:1030900001218804FEF713FC01213548FDF7AFFF3D
:1030A0004FF48050ADF8100018208DF81300032065
:1030B0008DF8120004A92F48FDF7D0FE4FF40060F0
:1030C000ADF8100004208DF8130004A92948FDF77D
:1030D000C5FE4FF4965000904FF48050ADF80400B8
:1030E0000020ADF806004FF48060ADF80800002025
:1030F000ADF80C000C20ADF80A0069461E48FFF739
:103100002AFC012240F225511B48FFF7BCFC01219B
:103110001948FFF7ACFC05B000BD08B54FF4A0603E
:10312000FDF754F927208DF8000004208DF80100E8
:1031300000208DF8020001208DF803006846FDF79D
:103140004AF908BD70B505460E4600240CE0295D1D
:103150000948FFF7F9FC00BF0748008800F080002D
:103160000028F9D0601CC4B2B442F0DB70BD00008E
:1031700030001400001001400048004008B5012153
:103180000846FEF782FB01214FF40170FEF78AFB2F
:103190000320ADF8000000208DF803006946654863
:1031A000FDF75CFE08BD00B591B06348FDF7CCFCAF
:1031B000624806906248079000200890022009901B
:1031C00000200A9080200B9040000C9080000D9011
:1031D00020200E9000020F900020109006A9564863
:1031E000FDF754FD01215448FDF77BFD00200190BF
:1031F00001208DF808008DF809004FF4602003903D
:103200000020049002208DF8140001A94B484C388E
:10321000FDF771F905230122002148484C38FDF7DC
:1032200002FA05230222012144484C38FDF7FBF93C
:10323000012142484C38FDF795F901213F484C38AF
:10324000FDF785F93D484C38FDF7A3F900BF3B4831
:103250004C38FDF7A3F90028F9D138484C38FDF770
:10326000A7F900BF35484C38FDF7A7F90028F9D178
:10327000012132484C38FDF7AAF911B000BD10B554
:10328000FFF77CFFFFF78FFF10BD2D4A12880280E9
:103290002B4A52880A8070472DE9F041044628499C
:1032A000088802F0BFFC06464FF08B4102F004FC98
:1032B000054629464FF07E5002F0C6FB07462946D8
:1032C000204802F0C7FB8046394602F0F5FB06466F
:1032D0001D4902F0BFFB20601C49206802F0BAFBC8
:1032E000804602F0BDFC074602F0F8FA064602F0FE
:1032F00090FC2060BDE8F0812DE9F04104461049C2
:10330000488802F08FFC06464FF08B4102F0D4FB58
:10331000054629464FF07E5002F096FB06462946A8
:103320000B4802F097FB0746314602F0C5FB2060D0
:10333000BDE8F08100080140080002404C24014033
:10334000640000200000E03F00007A4400002041BB
:10335000000048432DE9F0470446204602F062FC95
:1033600081462949484602F0A7FB81464FF08B4130
:10337000484602F06FFB824602F09FFC074600229F
:10338000224B02F0D7FB054602F0AAFC81464846D4
:1033900002F066FC85B229460020FDF798FBBDE8E7
:1033A000F08700B585B001210420FEF77BFA0121EA
:1033B0004807FEF784FA1020ADF8100000208DF8C1
:1033C000130003208DF8120004A91148FDF746FDF3
:1033D0000020009001900290022003906946002096
:1033E000FDF7F7FA01210020FDF710FB0021084648
:1033F000FDF76DFB012001F076F84FF4FA60FFF75E
:10340000A9FF05B000BD000000007A4400000440A0
:103410000008014008B54FF4A060FCF7D7FF1C205E
:103420008DF8000003208DF8010000208DF80200C7
:1034300001208DF803006846FCF7CDFF08BD0EB5EE
:1034400001210846FEF73BFA4FF08040FEF732FBC1
:103450004FF47A70ADF804004720ADF8000000206A
:10346000ADF80600ADF8020069464FF08040FEF767
:10347000F5FB01218807FFF713FA01221146900797
:10348000FEF763FF01218807FEF744FF00210120BA
:10349000FEF715FA0EBD10B5FFF7D1FF10BD000005
:1034A00008B501210420FEF70AFA01210820FEF7E1
:1034B000F9F94FF40070ADF8000018208DF8030002
:1034C00003208DF8020069462248FDF7C7FC08BDBD
:1034D00010B588B04FF4FA744CF25030ADF81800C3
:1034E0001420ADF814000020ADF81A00ADF8160055
:1034F00005A91948FEF7B2FB6020ADF804000120D1
:10350000ADF80600ADF80A400020ADF80C0001A9A6
:103510001148FEF7BAFC08210F48FFF74AF80121CD
:103520000D48FEF7F7FF01210B48FEF7F3FE08B048
:1035300010BD10B5044621460748FFF789F910BDB4
:1035400010B5FFF7ADFFFFF7C3FF4CF25030FFF7A8
:10355000F0FF10BD000C01400008004008B501213B
:103560000820FEF79FF901218805FEF7A8F94FF41E
:103570004060ADF8000003208DF802001C208DF89B
:10358000030069461348FDF769FC08BD1FB500201C
:10359000ADF804004BF6FF70ADF806000A20ADF858
:1035A00008004FF48060ADF80A000001ADF80C008F
:1035B0000948009001210948FDF735FE6946074892
:1035C000FDF7B3FD1FBD10B5FFF7C8FFFFF7DEFF26
:1035D00010BD0000000C0140801A06000058004099
:1035E00008B54FF4A060FCF7F1FE03208DF8000051
:1035F00000208DF801008DF8020001208DF80300F5
:103600006846FCF7E8FE08BD10B501214FF0C05038
:10361000FEF755F90120FDF77CFFFDF76DF901205C
:10362000FEF7ADF800BF4120FEF711F80028FAD0F0
:103630004FF48070FEF7BFF80120FEF7C2F8FEF7E6
:10364000FAF9FEF7EFF901210846FEF78FF9FEF7C8
:10365000E9F947F6FF70FEF7BFF9FEF7E3F910BD91
:1036600010B50446FFF7D0FF7B20FDF7F0FF18B13F
:10367000DCA002F06BFC06E07A20FDF7E8FF10B159
:10368000E1A002F063FCE9A002F060FCFEF7D3F9D0
:1036900001210846FEF76AF9FEF7C4F9FEF740F982
:1036A00010BD10B504462046FFF7DAFF10BD10B577
:1036B00001460869801E0861002805DC08690C3095
:1036C00008614869401E48616423486990FBF3F033
:1036D0004A69D31702EB9373C0EBA3004FF4C8748D
:1036E00092FBF4F3034440F26F14086960430C2426
:1036F00090FBF4F01844CB68034440F26D1402FBD5
:103700000430D24BC01A00EB40008B6803EBC000C2
:10371000C0EB00104B6803EB8000C0EB00100B689F
:1037200003EB8000A0F5E14010BDF0B58DB004467C
:103730003022C74901A802F011F96069451E6421D1
:1037400095FBF1F12846EA1705EB9272C1EBA20155
:103750004FF4C87295FBF2F28F186069C11700EB45
:1037600091718910A0EB810191B96422616991FB8B
:10377000F2F302FB131131B99200616991FBF2F38C
:1037800002FB131121B92169022901DD012600E0A4
:10379000002640F26D1005FB00712069401E01AA51
:1037A00052F820000844E16808440644072096FBCC
:1037B000F0F100FB1160A0610DB0F0BD4A694261FB
:1037C0000A690261CA68C2608A6882604A684260A7
:1037D0000A680260704770B504460D46FEF722F98C
:1037E00029462046FFF7EAFF2046FFF79EFF2046C6
:1037F000FFF75DFF0646FEF7E2F8FEF713F970BD2E
:1038000010B50446FFF700FF21469248FFF7E3FF9B
:103810004AF2A5510420FDF798F810BD7CB5054685
:1038200000240020009001901BE000BF20218A4866
:10383000FFF7F8F90028F9D08748FFF789F9214602
:10384000641C4DF82100601E5DF82000302804D370
:10385000601E5DF82000392803D980A002F076FBB5
:10386000641E022CE1D3019830380099303901EB05
:10387000810100EB4104AC4205D9294684A002F045
:1038800065FBFF207CBDE0B2FCE72DE9F041074677
:103890000C468B48B7FBF0F6B7FBF0F100FB117854
:1038A0004FF4616098FBF0F0A0604FF4616098FB0A
:1038B000F0F100FB11803C2190FBF1F060604FF4CF
:1038C000616098FBF0F100FB11803C2190FBF1F26C
:1038D00001FB1200206040F2B27509E005F0030020
:1038E00010B94FF4B77001E040F26D10361A6D1C3C
:1038F00005F0030010B94FF4B77001E040F26D100D
:10390000B042EBDD65616069C11700EB9171891010
:10391000A0EB810111B91D206A494860012505E02D
:10392000681E684951F82000361A6D1C681E6549EA
:1039300051F82000B042F3DD1C2048602561701C66
:10394000E0602046FFF7F1FEBDE8F08170B5044667
:103950000D4604F5E14629463046FFF796FF70BD57
:1039600070B5044658480078012808D1FEF71EF8C3
:1039700005462146FFF7EAFF00205349087070BD55
:1039800034494969416133490969016131494969EA
:10399000C1603049896881602E49496841602D497C
:1039A000096801602B4989698161704770B50246D9
:1039B000284E3579347A0020167AA61BF3B2002BF4
:1039C00002DA03F11806F3B21679A61BF1B2002948
:1039D00002DA01F13C06F1B2C3EB031601EB8600FB
:1039E00070BD00000D0A0D0A20506F776572204FE0
:1039F0006E205265736574206F63637572726564BF
:103A00002E2E2E2E000000000D0A0D0A204578747F
:103A100065726E616C205265736574206F636375A7
:103A2000727265642E2E2E2E000000000D0A204EAC
:103A30006F206E65656420746F20636F6E666967C2
:103A4000757265205254432E2E2E2E008BFA0A00DA
:103A5000E060000890010020004400400A0D506C16
:103A60006561736520656E7465722076616C69644A
:103A7000206E756D626572206265747765656E2073
:103A80003020616E642039202D2D3E3A2020000028
:103A90000A0D506C6561736520656E7465722076E1
:103AA000616C6964206E756D626572206265747701
:103AB00065656E203020616E642025640000000082
:103AC000805101006C0000209C00002008B50121FD
:103AD0001020FDF7E7FE4FF46070ADF800001020F5
:103AE0008DF8030003208DF8020069463948FDF780
:103AF000B5F980213748FDF760FA4FF480713548F9
:103B0000FDF75BFA4FF400713248FDF754FA08BD37
:103B100008B501210820FDF7C5FE01210920FDF7A8
:103B2000C1FE01212C48FDF76AFA0820ADF800001B
:103B300014208DF8030003208DF802006946274801
:103B4000FDF78CF908212548FDF737FA08BD08B5BF
:103B500001210420FDF7A6FE8020ADF80000102012
:103B60008DF8030003208DF8020069461C48FDF71C
:103B700075F980211A48FDF720FA08BD08B5012122
:103B80000420FDF78FFE01210520FDF78BFE0121AA
:103B90001148FDF734FA4FF40040ADF80000102052
:103BA0008DF8030003208DF8020069460C48FDF7EC
:103BB00055F94FF400410A48FDF7FDF908BD10B56D
:103BC000FFF784FFFFF7DAFFFFF7A2FFFFF7BFFF62
:103BD00010BD00000010014000023000000C014048
:103BE0000008014010B5FFF7A6F9FFF713FCFFF737
:103BF00094FAFFF7F5FC10BD10B5FFF7E0FF00F0F9
:103C00003DFCFFF748FCFFF757F9FFF7C3F900F059
:103C100081FCFFF737FA01F021F8FFF7C2FBFFF74D
:103C20002EFBFFF78DFCFFF7DDFFF848FFF739FDAE
:103C3000002000F0AAFEF649486108464169F5A057
:103C400002F084F901210846FDF739FE01218807B9
:103C5000FEF760FB10BDF44880884DF60171884284
:103C600012D1012080F3138800BF00BFEF48006825
:103C700000F4E060EE490843001DEC490860BFF322
:103C8000408F00BF00BFFEE7E74880884DF609710E
:103C900088422ED1E748408A28B90120DC490870C3
:103CA0000020487025E0E348408AB0F5D07F09D174
:103CB0000120D7494870002008700120887000203A
:103CC000C87016E0DB48408A40F25F11884208D194
:103CD0000120CF4948700020087088700120C8700A
:103CE00007E0D448408AB0F5407F02D10120C8499E
:103CF0000873CD4880884DF60A71884205D10120AD
:103D0000C3490871CB48808AC880C74880884DF66F
:103D10000C71884205D10120BD490872C548808ACE
:103D20004881704770B504464FF40041C248FDF722
:103D300042F9B748C480C08800EB4001C1EBC01015
:103D40004CF25031A1EB800085B22846FFF7F1FB21
:103D500070BD70B50546012D1CD1C103B648FDF7F5
:103D60002AF90120AA49C881022081F820000020F8
:103D700000F00BFEA64948613220C8800846C08882
:103D800000EB80004FF6FF7101EA80042046FFF748
:103D9000E1FA1CE04FF40041A748FDF70EF90020BE
:103DA0009B49C881012081F820004869002100F06A
:103DB000C2FD00209649C8800846C08800EB8000FC
:103DC0004FF6FF7101EA80042046FFF7C3FA70BD89
:103DD0002DE9F0418E480078012818D1974998487C
:103DE000006801F0A3FF05D28948C08910B90120FD
:103DF000FFF7AFFF93499248006801F08DFF06D2AC
:103E00008348C089012802D10020FFF7A2FF804823
:103E10004078012811D17E488078012806D17C485D
:103E2000C08950B90120FFF794FF06E07848C089A7
:103E3000012802D10020FFF78CFF75480079012886
:103E400006D17349C888FFF76DFF002070490873D9
:103E50006F48007B01287DD17B480088040A7A489E
:103E600005784088060A7848877868488068A042C4
:103E70000CDB66484068A84208DB0120724981F8E3
:103E80002C001C226149714801F068FD5F48806880
:103E9000B04209DB5D484068B84205DB00206A4952
:103EA00081F82C006A490870674890F82C000128B6
:103EB00074D1674800780A2871D2DFE800F0052045
:103EC0003B587590D1EFEDEC5F49C888FFF72AFFAA
:103ED0005E48FFF76BFD5F4908805B488088098872
:103EE000884208DA01205A4908701C22474957487D
:103EF00001F034FD02E000205549087028E15249E4
:103F00004889FFF70FFF5148FFF750FD51490880DE
:103F10004D4800890988884208DA02204C49087017
:103F20001C223A49494801F019FD02E001204849A4
:103F300008700DE14449C889FFF7F4FE4348FFF7D4
:103F400035FD4449088040488089098888420ADA5A
:103F5000032000E001E13E4908701C222B493B4848
:103F600001F0FCFC02E0022039490870F0E036491B
:103F7000488AFFF7D7FE3548FFF718FD3549088016
:103F80003148008A098888420ADA042030490870DA
:103F90001C221E492D4801F0E1FC04E0D9E0CEE0EE
:103FA00003202B490870D3E02749C88AFFF7BAFEDF
:103FB0002648FFF7FBFC274908802348808A0988A8
:103FC000884208DA0520224908701C220F491F4840
:103FD00001F0C4FC02E004201D490870B8E01A4951
:103FE000488BFFF79FFE1948FFF7E0FC194908804E
:103FF0001548008B098888422EDA0720144908707A
:104000001C220249114801F0A9FC28E0900100207F
:104010009C030020696E69742066696E697368206C
:1040200025640D0A000000005C0300200CED00E098
:104030000000FA05EE0500200008014000007A4467
:10404000EC00002000006644C00300204402002071
:10405000F0000020F20000200620EC49087077E014
:10406000EB49C88BFFF75EFEEA48FFF79FFCEA4981
:104070000880E748808B0988884208DA0820E349ED
:1040800008701C22E549E34801F068FC02E00720C3
:10409000DE4908705CE037E01BE0FFE7DC49488C54
:1040A000FFF740FEDB48FFF781FCDB490880D8487A
:1040B000008C0988884208DA0820D44908701C223C
:1040C000D649D44801F04AFC02E00720CF490870E5
:1040D0003EE0CF49C88CFFF725FECE48FFF766FCCF
:1040E000CD490880CA48808C0988884208DA0920AE
:1040F000C64908701C22C949C64801F02FFC02E0DD
:104100000820C249087023E0C149488DFFF70AFE24
:10411000C048FFF74BFCC0490880BD48008D0988A6
:10412000884208DA0020B94908701C22BB49B94806
:1041300001F014FC02E00920B449087008E00020F6
:10414000B24908701C22B549B24801F007FC00BF13
:1041500002E00020FFF7E6FD00BFB148007A012829
:1041600007D1AF48408900B2AE4908800020AC4971
:104170000872BDE8F0813EB5AB480088012806D141
:1041800001F0FEF901F0F2F80020A7490880A648E6
:104190004088012802D10020A3494880A248808895
:1041A000012874D1A14890F83C0001280BD19F4808
:1041B0008088B0F5804F67D19D4801F055FB9C4841
:1041C000FFF71EFB60E09548FFF7CAFB93480068C5
:1041D00092494968914A9268CDE9002102908F483E
:1041E000C3680269416993A001F0B0FE8B488088E2
:1041F00000B2954908809548008820B98748808892
:1042000000B2934908809148008810B901208F4975
:1042100008808D48B0F900008D49B1F9001088423E
:1042200007DA894800883C3089490988401A84B2F5
:1042300005E08548008886490988401A84B2794893
:10424000B0F9000084421EDB0120824908807E48CC
:10425000B0F900007E4908807148C08901280FD15B
:104260006F48008A6F49098808446D4908820846EA
:1042700040696C49B1F9001008446949486102E09D
:1042800000206749088200BF00206749888066488F
:10429000C08801280AD17048FFF72EF86F48FEF752
:1042A000FBFFFFF795FD00205F49C8805E4800894D
:1042B000012815D15D4890F83C00012805D1FFF791
:1042C000CAFC0020594981F83C006248008820B1AE
:1042D00000206049088001F04DFA00205249088111
:1042E0005148408901280CD100F015FD5C4800F0D0
:1042F0003CFE5B4801885BA001F028FE00204A4993
:1043000048813EBD4549898809B24F4A11804F49CD
:10431000098821B94149898809B24D4A11804B4920
:10432000098811B90121494A11804749B1F90010A2
:10433000474AB2F90020914207DA434909883C31E3
:10434000434A1288891A88B205E03F490988404AE1
:104350001288891A88B23349B1F90010884207DB04
:1043600001213C4A11803849B1F90010384A1180C6
:10437000704710B5002429E03E480088FFF7D9F8BF
:10438000322000F0B0F83B480088B0F57A7F02DABE
:10439000002039490880374800884BF66871884208
:1043A00002DD0120344908803348008830B93148A3
:1043B000008800F5FA702F49088005E02D48008834
:1043C000A0F5FA702B490880601CC4B2642CD3DBC2
:1043D00010BD10B54EF6602000F085F800F00FFB20
:1043E00040F2E27012494861082008611A20C86052
:1043F0000B208860192048601E2008600846FFF7DF
:10440000FFF90648FFF7ACFA10BD0000F0000020ED
:10441000C003002044020020F20000209001002090
:104420009C030020D6000020840100205C030020B3
:10443000EC01002025642D25642D25642D25642D97
:1044400025642D25640D0A00D4000020D000002032
:10445000D2000020D8000020EC000020E80000205E
:1044600008020020766F6C746167652025640D0A70
:1044700000000000F4000020F600002030B52048C5
:104480000068204AB0FBF2F1B1F1807F01D3012036
:104490001DE021F07F40401E4FF0E0225061501798
:1044A0000F22002807DA13071D0E174B00F00F0428
:1044B000241F1D5503E013071C0E144B1C5400BF92
:1044C00000204FF0E022906107201061002008B129
:1044D00000BFFEE730BD0E49086000BF0C49096807
:1044E0000029FBD1704700B50246002305E04FF4D8
:1044F0007A70FFF7F0FF581C83B29342F7DB00BDE0
:104500005000002040420F0018ED00E000E400E001
:10451000F800002010B5FFF756F8A020FE490880EB
:1045200010BD10B5002400BF0121FC48FCF79FFE20
:104530001421FA48FCF7FAFE0446F74801780022F5
:10454000F648FCF7EAFE1421F448FCF7EFFE00F011
:1045500002000028E8D0F249F048FCF7A8FF01214A
:10456000EE48FCF790FE10BD70B504460E461546A9
:1045700000BF4FF40031E948FCF77CFF0028F8D178
:104580000121E648FCF773FE00BFE649E348FCF76B
:104590004FFF0028F9D0E04801780022DF48FCF7FF
:1045A000BCFE00BFE049DD48FCF742FF0028F9D01F
:1045B0003146DA48FCF7ABFE00BFDB49891CD7481F
:1045C000FCF736FF0028F8D00CE02178D348FCF740
:1045D0009EFE641C00BFD449891CD048FCF728FF0C
:1045E0000028F8D02800A5F10101CDB2EDD10121BC
:1045F000CA48FCF748FE70BD2DE9F04707460D4656
:1046000014464FF00008C146C24600262846E91766
:1046100005EB11710911A5EB011101F0FF0ACAF1B7
:104620001000C6B22046E11704EB1171C1F3071860
:10463000E11704EB11710911A4EB011101F0FF095D
:10464000BAF1000F28D1B8F1000F07D14A46294628
:104650003846FFF789FFFFF764FF60E00AE01022A9
:1046600029463846FFF780FFFFF75BFF05F1100092
:10467000C5B210375FEA0800A8F1010101F0FF0898
:10468000EDD1B9F1000F4AD04A4629463846FFF726
:104690006BFFFFF746FF42E0B8F1000F07D14A4633
:1046A00029463846FFF760FFFFF73BFF37E0A01BC6
:1046B00084B22046E11704EB1171C1F30718E1172A
:1046C00004EB11710911A4EB011101F0FF094EB1C6
:1046D000324629463846FFF747FFFFF722FFA81961
:1046E000C5B237440AE0102229463846FFF73CFF9E
:1046F000FFF717FF05F11000C5B210375FEA080099
:10470000A8F1010101F0FF08EDD1B9F1000F06D0C9
:104710004A4629463846FFF727FFFFF702FFBDE864
:10472000F08770B505460E46144600BF4FF40031C1
:104730007A48FCF79FFE0028F8D101217748FCF762
:1047400096FD00BF77497548FCF772FE0028F9D046
:104750007148017800227148FCF7DFFD00BF724903
:104760006E48FCF765FE0028F9D001216B48FCF784
:104770005AFD31466948FCF7CAFD00BF6A49891CE9
:104780006648FCF755FE0028F8D001216348FCF785
:104790006EFD00BF63496148FCF74AFE0028F9D06E
:1047A0005D48017801225D48FCF7B7FD00BF5D4917
:1047B000491C5A48FCF73CFE0028F8D016E0012CB2
:1047C00007D100215548FCF76AFD01215348FCF749
:1047D0005AFD54493F315148FCF72AFE30B1534845
:1047E000FCF797FD28706D1C601E84B2002CE6D18A
:1047F00001214A48FCF753FD70BD70B504460D46D3
:1048000001214648FCF733FD00BF46494348FCF709
:104810000FFE0028F9D04048017800223F48FCF7FD
:104820007CFD00BF40493D48FCF702FE0028F9D05E
:1048300029463A48FCF76BFD00BF3B49891E3748C3
:10484000FCF7F6FD0028F8D021463448FCF75FFD60
:1048500000BF3549891C3148FCF7EAFD0028F8D033
:1048600001212E48FCF70FFD70BD70B504460D46C2
:1048700001212A48FCF7FBFC00BF2A492748FCF726
:10488000D7FD0028F9D02448017800222348FCF7FE
:1048900044FD00BF24492148FCF7CAFD0028F9D097
:1048A00029461E48FCF733FD00BF1F49891C1B48E1
:1048B000FCF7BEFD0028F8D001211848FCF7D7FC12
:1048C00000BF18491548FCF7B3FD0028F9D012487D
:1048D000017801221148FCF720FD00BF1149491C55
:1048E0000E48FCF7A5FD0028F8D00C4800884FF6CC
:1048F000FF310840094908800846008840F0200040
:10490000088000BF07493F310448FCF791FD0028AB
:10491000F8D0024810300BE02C0100200058004075
:104920000004001001000300820007000054004052
:104930000088207070BD13B50C46E1B29DF80000F0
:10494000FFF75BFF0520FFF7CEFD621CD1B29DF89B
:104950000100FFF752FF0520FFF7C5FDA21CD1B2F1
:104960009DF80200FFF749FF0520FFF7BCFDE21CA0
:10497000D1B29DF80300FFF740FF0520FFF7B3FD1C
:104980000020224981F820001CBD1CB50446E1B27C
:104990006846FFF76AFF0520FFF7A5FD601CC1B25E
:1049A0000DF10100FFF761FF0520FFF79CFDA01C42
:1049B000C1B20DF10200FFF758FF0520FFF793FD8C
:1049C000E01CC1B20DF10300FFF74FFF0520FFF718
:1049D0008AFD9DF800008DF804009DF801008DF817
:1049E00005009DF802008DF806009DF803008DF883
:1049F00007000020054981F8200001981CBD10B572
:104A000000210348FFF731FF10BD00009C03002088
:104A1000300100202DE9F84F05460E4617460FB12C
:104A2000042F02DD0020BDE8F88F4FF0020A9EE05F
:104A30004FF0010BFE48A0F12201C86045F080084C
:104A40002238C06880F800800846C068401CC860F2
:104A5000C1463C4613E0601E305CF5492239C96806
:104A60000870F3482238C068401CF1492239C860F8
:104A7000601E305C484400F0FF09601EC4B2002C88
:104A8000E9DC6FEA090000F0FF09E9482238C06854
:104A900080F80090E6482238C068401CE44922397A
:104AA000C860B81C8880E248C8600A461179D0689E
:104AB000FEF748FBDE48A0F12201C860EA2D03D1D1
:104AC0004320C968087003E0D9482238C0680570DF
:104AD0000120D74922398880002048800A46117970
:104AE000D068FEF72FFB1420FFF7FDFC002000909C
:104AF000EA2D19D13078E52809D1CD48223890F82F
:104B0000188008F0100050BB4FF0000B27E0307801
:104B1000DC2824D1C648223890F8188008F010000C
:104B2000E8B14FF0000B1AE03C4615E00098411C3C
:104B3000C9B20091BE490A3911F800801DB9022C92
:104B400001D14FF00008601E305C404502D04FF0AC
:104B5000000B03E0601EC4B2002CE7DC00BFBBF119
:104B6000010F00D107E0AAF1010000F0FF0ABAF13D
:104B7000000F7FF45DAF00BF584654E72DE9F84FB2
:104B800005460E4617464FF0000BD84617B90020D1
:104B9000BDE8F88F4FF0020A4AE001200090A946D4
:104BA000A8464FF0000BA248A0F12201C8602238AD
:104BB000C06880F80090012088800A461179D0688A
:104BC000FEF7C0FA1420FFF78EFC3C460EE0584674
:104BD000411C01F0FF0B96490A39095C601E3154F3
:104BE000305C404400F0FF08601EC4B2002CEEDCD4
:104BF0006FEA080000F0FF085846411C01F0FF0B67
:104C00008B490A3911F80090C14509D00020009065
:104C10003C4603E00021601E3154C4B2002CF9DC94
:104C20000098012800D106E0AAF1010000F0FF0A77
:104C3000BAF1000FB1D100BF00207D492239488070
:104C40000098A5E708B5FA20009001226946EA20FD
:104C5000FFF7E0FE1420FFF746FC08BD08B503206F
:104C60007449088048804FF4805088806020C88054
:104C70004FF4907008810020488188818882C88222
:104C8000088348838883C88308844884888448824A
:104C90004FF44070C884684888626848C862002041
:104CA0004863674890F8300040F00100644981F89B
:104CB0003000E520009001226946EA20FFF7AAFEB5
:104CC000FFF7C0FF02225B490020FFF7A3FE00B9F7
:104CD00008BD02225749891C0120FFF79BFE00B93D
:104CE000F6E702225349091D1046FFF793FE00B96B
:104CF000EEE702224F49891D0320FFF78BFE00B922
:104D0000E6E702224B4908310420FFF783FE00B991
:104D1000DEE700BFDCE72DE9FE4F494890F83000A0
:104D200000F0010058B1FFF799FF454890F83000B6
:104D300020F00100424981F83000BDE8FE8F0020DC
:104D40000290032202A92D20FFF718FF029800F419
:104D5000003020B100203A4981F8240003E001200E
:104D6000374981F82400002418E00021354840F834
:104D70002410024602EB840104F12202D0B2032285
:104D8000FFF7FCFE2F480C38C06800F4000018B193
:104D900000212C4840F82410601CC4B2032CE4DB32
:104DA000022228490C312520FFF7E8FE042225497C
:104DB00008392620FFF7E2FE22480C38406800F050
:104DC000004050B11F480C384068C043401C1D498A
:104DD0000C3948604FF0010A01E04FF0000A194811
:104DE0000C38808800B216498881BAF1000F02D0D1
:104DF00001201549087013480C38808AC0F30E0052
:104E000000EB8000C0F359100D4908800D480C38A4
:104E1000C06800EB8000C0F3591B0846C0F804B01E
:104E2000BAF1000F03D0406840F0004048600DE048
:104E3000820200208C0200201136FC3ECBFC3C3B61
:104E400020030020EC0200203201002029F07F49DD
:104E500009F4000028B16FF07F4020EA090000F15A
:104E60000109484600F0DEFE009000F026FF0746EC
:104E7000464A474B00F05EFE054600F005FF4549F7
:104E8000C8814FF46162019901FB02F0C11700EB88
:104E90005141C1F3CF313F4A11821046007C00F0EE
:104EA0007F0068B91046807B50B91046007B3028DF
:104EB00006DA002011460873002110468173017440
:104EC0003448406820F00040B0F5A87F05D20020AB
:104ED0003049486040F69910C8812E48806820F01B
:104EE0000040B0F5A87F02D200202A4988602A48F5
:104EF000008BC0002949B1FBF0F0264948820846E2
:104F0000406820F00040B0F5AA0F0BD90846808D0C
:104F100040F66511884208DA1E48808D401C1D4904
:104F2000888502E000201B4988851D48007828B14B
:104F30001848C08940F400401649C881002016492D
:104F4000C86103221C312A20FFF718FE1248C069ED
:104F5000642808D900201049C8610846406AC96918
:104F600008440D49486200BFE7E60A490988018004
:104F70000849496841600749898981810549C9898A
:104F8000C1810449498A418270470000FCA9F1D2DD
:104F90004D62C04020030020E0020020C4F35515FC
:104FA00032010020FE48407A401CFD494872084604
:104FB000407A0A2803DD01200870002048727047FB
:104FC00001B584B001208DF80800F548807840F0E4
:104FD00080008DF809009DF811008DF80A009DF8F9
:104FE00010008DF80B00042102A800F059FC01907C
:104FF0009DF804008DF80C009DF805008DF80D005B
:10500000062102A8FDF7ACFF05B000BD03468B42A8
:1050100003DB934201DC012070470020FCE710B560
:105020000446E0480078072879D006DC78D2DFE82B
:1050300000F0133D3E7C8BCBF1000B2871D006DCD9
:1050400008286FD009286ED00A2869D13FE164286A
:105050006AD06528F9D172E1D1480078012821D1C0
:10506000012C12D10220CF4908700020CE490880BF
:105070000120CB494870CD48CB4909884454CA48DF
:105080000088401CC84908800FE00020C44908700F
:105090001E21C64800F07BFC0020C3490880C1499E
:1050A000087002E00020BF4908705DE15CE1032C5C
:1050B00003D0062C01D0102C0ED1B9488470BB4807
:1050C000B94909884454B8480088401CB64908804A
:1050D0000320B449087021E0782C01D0792C0ED13E
:1050E000AF488470B148B04909884454AE4800883C
:1050F000401CAD4908806420AA4908700EE00020D9
:10510000A74908700120FFF75BFF1E21A74800F0A8
:105110003EFC0020A4490880A249087024E1A9E0CF
:1051200017E1E7E0B5E0C3E003E19D4844719F4823
:105130009D49098844549C480088401C9A4908802D
:105140000420984908700FE1954804710146888849
:1051500044F2FF024FF48041FFF758FFD0B9904965
:1051600088884DF60D724FF45F41FFF74FFF88B905
:105170008B49888844F67F624FF49C41FFF746FFD5
:1051800040B9874988884EF2B7024EF28001FFF796
:105190003DFF60B1854884490988445482480088AD
:1051A000401C8149088005207E4908700BE00220E0
:1051B000FFF706FF1E217D4800F0E9FB00207A4939
:1051C000088078490870CFE07548807803280ED1B0
:1051D0007348C472754874490988445472480088F9
:1051E000401C7149088006206E49087032E06C4806
:1051F000807806280FD16A4844746C486A49098847
:10520000445469480088401C674908800720654964
:1052100008701FE01FE06248807810280ED16048B7
:10522000447362486049098844545F480088401CC0
:105230005D49088008205B4908700BE00020584950
:1052400008701E21594800F0A2FB00205649088032
:105250005449087088E05248847254485249098879
:10526000445451480088401C4F49088064204D49EF
:10527000087079E04A4804744C484B490988445402
:1052800049480088401C4849088064204549087006
:105290006AE04348047345484349098844544248F6
:1052A0000088401C4049088009203E4908705BE0A6
:1052B0003B4884733D483C49098844543A48008837
:1052C000401C394908800A20364908704CE03448AF
:1052D000418F123000EB4100447034483249098854
:1052E000445431480088401C2F4908800B202D4928
:1052F000087039E02A48418F123000F811402B48DD
:1053000029490988445428480088401C26490880B7
:105310002348418F807B401E814206DB6420214967
:10532000087000201E49488702E00A201D490870C5
:105330001AE01B48847165201A49087014E0184867
:10534000C4710120164908720020087015490870C0
:105350000AE01E21154800F01AFB002010490872CF
:1053600008701049087000BF00BF10BDF8B50026D6
:10537000002000901E210E4800F009FB00200D497E
:1053800008800748007A01287ED10748018807482D
:1053900000F086FA084908800148C08809880DE0B5
:1053A0005C0300207201002064010020EE03002055
:1053B0000C040020660100207001002088426FD19B
:1053C000FE484078FE490870FC4880784870FB48E9
:1053D00040798870F9480079C870F848808800F4EE
:1053E0007F46B6F5804F08D1F64DF74CF3488088DC
:1053F000A0F58040F149C88725E0B6F55F4F07D199
:10540000F24CEE488088A0F55F40EC49C8871AE06E
:10541000B6F59C4F08D1EE4DEE4CE8488088A0F5DB
:105420009C40E649C8870EE04EF28000864208D1D3
:10543000E94DEA4CE148808800F5FC50DF49C88717
:1054400001E00020F8BDDD488078032829D1DB4841
:10545000807A4006000EDA4908710520E04908808C
:10546000002018E0D549C98F014405EB41014A7875
:10547000411DD34B5A54D149C98F014415F811200D
:10548000811D5A54D64900E075E00988891CD44A28
:105490001180811CC8B2C94949898142E2DC42E0DD
:1054A00066E0C6488078062814D1C448407CC449C8
:1054B0000871C248007C48710620C9490880BF486D
:1054C000008ABE49C98F24F811000120BB4981F828
:1054D0003C0028E0B9488078102822D1B748407BAA
:1054E000B7490871B548007B48710620BC4908805F
:1054F00000200DE0B149C98F0144B04AD18702F1C3
:10550000120131F81010D28F24F81210411CC8B2C9
:10551000AA49897B8142EDDC0120A84981F83C0041
:1055200001E000208EE7AF480188AF4800F0B8F9ED
:1055300000909DF80010AA4802880088401CA84BE3
:1055400018809F4881549DF80110184602880088F1
:10555000401C18809A4881540120FEF7C4FFA048DF
:1055600001789748FDF7FCFC0520FEF7B4FF02E048
:105570000520FFF725FD002090490872012061E712
:105580002DE9F04B96B00FA8FEF7FAF9002400259C
:1055900000269648FFF7E9FC0EA8FDF77DFE0E9861
:1055A00000F045FB07B29248B0F80680B0F81090C2
:1055B00040690D900BA8FDF79FFE0B9800F037FB9C
:1055C0001FFA80FB1498A0F5FA607E494870139882
:1055D00008701298C1B27B48C1707A4911988870DE
:1055E0001098C1B27748417176490F9808711598A3
:1055F000C1B27448C1710481458186817B480088AD
:105600007049C8817948808808827848408A4882F1
:105610007648C089888275488089C88273488089A5
:1056200008834F830846A0F81C80A0F81E90BDF8A0
:1056300036000884BDF8340048840846A0F824A049
:10564000C884BDF8300008850846A0F82AB05B4839
:1056500090F83C0001287DD100205849898801F448
:105660007F40B0F5804F15D157494978614A516163
:105670005549097811615449C978D16052498978EE
:1056800091605149497951604F49097911604E49FA
:10569000C9799161B0F55F4F20D14C4909880A91D1
:1056A0004A49498809914949898808914749C988DF
:1056B0000791464909890691444949890591434919
:1056C000898904914149C98903914049098A029114
:1056D0003E49498A01913D49898A0091B0F5604F60
:1056E00044D13E498989444A11803C49C989518045
:1056F0003A49098A91803949498AD1803749898A4A
:1057000011813649C98A51813449098B91813349C4
:10571000498BD1813149898B11823049C98B5182A2
:105720002E49098C91822D49498CD1822B49898C33
:1057300011832A49C98C51832849098D91832749AE
:10574000498DD1832549898D11842449C98D51847E
:10575000224900E00BE0098E91842049498ED184D2
:105760001E49898E11851D49C98E518500BF16B00D
:10577000BDE8F08B30B597B0002401201F490870B8
:10578000032048704FF4804048802A2008710D485B
:105790008860084600788DF80000084640788DF84B
:1057A00001000846C0788DF80200084680788DF820
:1057B0000300084600798DF8040021E05C03002016
:1057C0000C0400202A04002068010020EE050020BF
:1057D0007E0400200A0600207E0500200A07002023
:1057E0006601002064010020EE030020A8070020CD
:1057F0009C0300207C070020C003002098070020A5
:1058000005240025002014E02349896801EB4001AC
:105810004A78691D0DF801201F49896811F8102088
:10582000A91D0DF80120A91CCDB2A11C8CB2411CF0
:10583000C8B2194909798142E6DC2146684600F080
:105840002FF8154988810846007B0DF804000846AA
:10585000417B601C0DF80010A01C84B2E1B26846C8
:10586000FDF77EFB17B030BD0C49496901F5FA61BF
:1058700041610A49096901610849C968C16007496C
:105880008968816005494968416004490968016087
:105890000249896981617047980700207C070020D0
:1058A00070B502460B464FF6FF710026002411E04A
:1058B00012F8016B7140002509E001F0010020B1F0
:1058C0004AF2010080EA610100E049106D1C082DD8
:1058D000F3DB641C9C42EBDB88B270BDF0B5014683
:1058E0009B2400221C4D2D688D4202D21A4D29683E
:1058F00007E0194DD5F86C528D4202D9164DD5F8F6
:105900006C120CE0A618F5B205EBD5767310124DAB
:1059100055F823508D4201D91A4600E01C46551C0B
:10592000AC42EFD10C4D55F824500B4E56F8226086
:10593000AD1B094E56F822608E1B06EB86067600DC
:10594000B6FBF5F502EB82064FF4C877C7EB4606C7
:10595000354428B2F0BD00001061000840EA0103A0
:105960009B0703D009E008C9121F08C0042AFAD215
:1059700003E011F8013B00F8013B521EF9D27047D9
:10598000D2B201E000F8012B491EFBD27047002281
:10599000F6E710B513460A4604461946FFF7F0FF2E
:1059A000204610BDF0B480EA0102D40F4200B2EBF1
:1059B000410F02D20246084611464A0042D0C30DAA
:1059C000DDB2C1F3C752AD1A202D35DAC1F316018D
:1059D00041F4000204B15242C5F1200602FA06F178
:1059E0002A411044B3EBD05F23D0C4B1012DA0EB0A
:1059F000C35009DCF0BC4FF0004202EAC352DBB2F4
:105A000000F5000000F0CBB9400000F1807000EB21
:105A1000C350A0F1807040EAD170490009E0490804
:105A200041EAC071A0EBC35000F50000400800EB54
:105A3000C350F0BC00F0AAB96142012202EB41015F
:105A4000001BF6E7F0BC704781F00041AAE780F048
:105A50000040A7E780EA010210B502F000434000D1
:105A600022D04A001FD0010E01EB1261C0F3560094
:105A7000C2F3560240F4000042F40002A0FB0220F0
:105A800000047F39140400D0401C50EA124001D4B5
:105A90004000491EC2B20C0604EBD010401C400866
:105AA000802A02D003E0002010BD20F00100002970
:105AB00000DA0020184310BD30B480EA010202F081
:105AC000004530F0004221F0004013D090B1C30DEA
:105AD000D40DC2F31601C0F31600E41A41F400011C
